:020000040800F2
:10000000B80700246D030008EB3700081337000819
:10001000E937000863050008C94600080000000031
:10002000000000000000000000000000BD3A0008D1
:100030008907000800000000ED370008BF3A0008FB
:100040008703000887030008870300088703000868
:100050008703000887030008870300088703000858
:100060008703000887030008870300086505000868
:100070008703000887030008870300088703000838
:100080008703000887030008870300088703000828
:100090008703000887030008870300088703000818
:1000A0008703000887030008870300088703000808
:1000B00087030008870300088703000887030008F8
:1000C00087030008870300088703000887030008E8
:1000D00087030008870300088703000887030008D8
:1000E000870300088703000800000000870300085A
:1000F00087030008870300088703000887030008B8
:1001000087030008870300088703000887030008A7
:10011000870300081D3C00088703000887030008C8
:100120008703000887030008870300088703000887
:100130008703000887030008870300088703000877
:1001400000000000000000000000000000000000AF
:100150008703000887030008870300088703000857
:100160008703000887030008870300088703000847
:1001700087030008870300088703000800000000C9
:100180008703000887030008870300088703000827
:100190008703000887030008870300088703000817
:1001A0008703000887030008870300080000000099
:1001B00087030008870300088703000887030008F7
:1001C000870300088703000800000000000000000B
:1001D000000000000000000087030008000000008D
:1001E000000000000000000000000000000000000F
:1001F00000000000000000008703000887030008DB
:100200008703000887030008000000008703000838
:100210008703000887030008870300088703000896
:1002200087030008000000008703000800000000AA
:100230008703000887030008000000008703000808
:100240008703000887030008870300088703000866
:100250008703000887030008870300088703000856
:100260008703000887030008870300088703000846
:1002700087030008870300088703000800000000C8
:100280008703000887030008870300088703000826
:10029000000000008703000887030008000000003A
:1002A0000000000087030008870300088703000898
:1002B00087030008870300088703000887030008F6
:1002C00087030008870300088703000800F002F88E
:1002D00000F03CF80AA090E8000C82448344AAF1A4
:1002E0000107DA4501D100F031F8AFF2090EBAE8A2
:1002F0000F0013F0010F18BFFB1A43F0010318475A
:100300006444000084440000103A24BF78C878C1D7
:10031000FAD8520724BF30C830C144BF04680C600B
:10032000704700000023002400250026103A28BF53
:1003300078C1FBD8520728BF30C148BF0B60704757
:100340001FB504F0E9F91FBD10B510BD00F0CFF8DE
:100350001146FFF7F5FF04F0C9F900F0EDF803B41A
:10036000FFF7F2FF03BC00F0F5F8000009488047F2
:1003700009480047FEE7FEE7FEE7FEE7FEE7FEE787
:10038000FEE7FEE7FEE7FEE704480549054A064B9F
:10039000704700005D3B0008CD020008B801002452
:1003A000B8070024B8030024B803002453EA020C61
:1003B00000F069802DE9F04B4FF00006002B1FBFC5
:1003C000B3FA83F503FA05F424FA05F65E4012BF8A
:1003D0001643B2FA82F502FA05F4C5F120051EBFF4
:1003E00022FA05FC44EA0C04203556EA044C4FEA94
:1003F000144418BF641C4FF000084FF000099042ED
:1004000071EB030C39D3002919BFB1FA81F701FA56
:1004100007F6B0FA80F700FA07F6C7F120071EBF0B
:1004200020FA07FC46EA0C062037B6FBF4FCA7EBE3
:100430000507103F07F01F0BCBF120060CFA0BFB52
:100440002CFA06F644BFB3460026202FA4BF5E4612
:100450004FF0000B5BEA060C08BF4FF0010B19EBE5
:100460000B09ABFB027C48EB0608C01B06FB02CC69
:100470000BFB03CC71EB0C01C1E70B460246414676
:100480004846BDE8F08B13B54FF000004FF0000177
:10049000AFF30080BDE81C4070474FF0000200B58C
:1004A000134694469646203922BFA0E80C50A0E897
:1004B0000C50B1F12001BFF4F7AF090728BFA0E845
:1004C0000C5048BF0CC05DF804EB890028BF40F811
:1004D000042B08BF704748BF20F8022B11F0804F53
:1004E00018BF00F8012B704770477047704775467A
:1004F00000F02CF8AE4605006946534620F0070090
:10050000854618B020B5FFF73FFFBDE820404FF00B
:1005100000064FF000074FF000084FF0000B21F0ED
:100520000701AC46ACE8C009ACE8C009ACE8C009BA
:10053000ACE8C0098D46704710B50446AFF30080A3
:100540002046BDE81040FFF70ABF00000048704792
:100550005801002401491820ABBEFEE72600020026
:100560007047FEE7014800F005BC0000A800002429
:10057000294A016891423AD0274A1832914236D02E
:10058000254A3032914232D0234A483291422ED00D
:10059000214A603291422AD01F4A7832914226D0B5
:1005A0001D4A9032914222D01B4AA83291421ED05D
:1005B0001A4A91421BD0194A1832914217D0174A51
:1005C0003032914213D0154A483291420FD0134A2B
:1005D000603291420BD0114A7832914207D00F4AD3
:1005E0009032914203D00D4AA832914211D1CAB241
:1005F0001823103AB2FBF3F26FF30901032A02F059
:100600000703074AD25CC26500D9091D8165084607
:10061000704721F0FF01F9E710000240100402408A
:100620004A47000830B5224A012301689142CAB204
:100630001BD01F4C1434A14217D01D4C2834A142AA
:1006400013D01B4C3C34A1420FD0194C5034A14262
:100650000BD0174C6434A14207D0154C7834A1421A
:1006600003D0134C8C34A1420CD11421114C083A04
:10067000B2FBF1F10F4A803201F01F0504EB81015A
:10068000AB4010E00C4D1824103A0D44B2FBF4F1CD
:10069000A82D00D80831094A01F01F0402EB81019E
:1006A000064AA3408032603080E80E0030BD000072
:1006B0000854025800580258F0FBFDBF00080240E1
:1006C00010B50279531E072B2DD8174C0168A14293
:1006D0001BD0154C1434A14217D0134C2834A1421E
:1006E00013D0114C3C34A1420FD00F4C5034A142D6
:1006F0000BD00D4C6434A14207D00B4C7834A1428E
:1007000003D0094C8C34A14203D10849074C443131
:1007100002E00749064C443104EB8202C0E91B2188
:1007200001219940416710BD08540258FC580258F5
:10073000FC08024010B583694FF0C074826A01461C
:10074000002053B1B3F5005F15D072B1012A0CD06F
:10075000022A0AD0032A09D104E01AB1012A06D0DC
:10076000022A03D1C96AC90100D5012010BDC96A96
:10077000A142FAD010BD002AF7D0012AF2D0022AF5
:10078000F3D0032AF3D010BD704772B6FEE7000025
:100790002DE9F84F044601F04DF900903CB194F872
:1007A0003500022806D0802161650020E4E00120A8
:1007B000BDE8F88FC74DC74EC6491835206830369A
:1007C000DFF81483DFF814938842DFF814A3DFF80E
:1007D00014B32ED0A8422CD0B0422AD0404528D005
:1007E000484526D0504524D0584522D0BD4A18321D
:1007F00090421ED0BC4A90421BD0BB4A1832904255
:1008000017D0B94A3032904213D0B74A483290429A
:100810000FD0B54A603290420BD0B34A7832904242
:1008200007D0B14A9032904203D0AF4AA8329042EA
:1008300009D1026822F01E0202602068426922F09B
:100840008002426103E0026822F00E020260276823
:100850008F4238464DD0A8424BD0B04249D0404597
:1008600047D0484545D0504543D0584541D09D4A92
:10087000183290423DD09C4A90423AD09A4A18325F
:10088000904236D0984A3032904232D0964A48321E
:1008900090422ED0944A603290422AD0924A7832C6
:1008A000904226D0904A9032904222D08E4AA8326E
:1008B00090421ED08D4A90421BD08C4A14329042F6
:1008C00017D08A4A2832904213D0884A3C3290424C
:1008D0000FD0864A503290420BD0844A6432904204
:1008E00007D0824A7832904203D0804A8C329742B5
:1008F00004D1206E026822F480720260754920687B
:10090000884228D0A84226D0B04224D0404522D0E8
:10091000484520D050451ED058451CD0714918314B
:10092000884218D07049884215D06F4918318842E2
:1009300011D06D49303188420DD06B494831884221
:1009400009D069496031884205D0674978318842C9
:1009500001D065499031016821F0010101600EE08C
:1009600001F068F80099401A052808D9202262652C
:100970000321002084F8351084F8340017E7386824
:10098000C007EDD1534A0121206890422ED0A842E1
:100990002CD0B0422AD0404528D0484526D05045DA
:1009A00024D0584522D04F4B183398421ED04E4B7E
:1009B00098421BD04C4B1833984217D04A4B3033D7
:1009C000984213D0484B483398420FD0464B60337F
:1009D00098420BD0444B7833984207D0424B903327
:1009E000984203D0404BA833984208D194F85C70E9
:1009F0003F23A06D07F01F07BB40836007E094F81A
:100A00005C30A06D03F01F0301FA03F3436020681C
:100A100090424DD0A8424BD0B04249D0404547D03B
:100A2000484545D0504543D0584541D02D4A18320D
:100A300090423DD02C4A90423AD02B4A18329042F4
:100A400036D0294A3032904232D0274A483290423A
:100A50002ED0254A603290422AD0234A78329042E2
:100A600026D0214A9032904222D01F4AA83290428A
:100A70001ED01E4A90421BD01C4A1432904217D0FE
:100A80001A4A2832904213D0184A3C3290420FD072
:100A9000164A503290420BD0144A6432904207D02A
:100AA000124A7832904203D0104A8C3290420BD1D5
:100AB000D4E919024260E06E30B1026822F480721B
:100AC0000260D4E91C024260002084F8351084F8EA
:100AD00034006DE6100002405800024070000240F1
:100AE00088000240A000024010040240085402584E
:100AF0002DE9F05F28B190F83510022904D080214B
:100B000041650120BDE8F09F904C904B0168183C76
:100B100018338E4ADFF83C92A1428D4CDFF838E260
:100B20008E4FDFF83CB2DFF83CA28F4D8F4E31D0B4
:100B300091422FD099422DD0A1422BD0494529D0A6
:100B4000714527D0B94225D0DFF810C20CF1180C3E
:100B500061451FD0DFF808C2ACF1600C614519D0C7
:100B6000DFF8FCC1ACF1480C614513D0DFF8F0C1EF
:100B7000ACF1300C61450DD0DFF8E4C1ACF1180CDC
:100B8000614507D0594505D0514503D0A94201D050
:100B9000B1422CD1DFF8B4C14FF0040880F83580A1
:100BA000ACF1180C61451DD091421BD0994219D06F
:100BB000A14217D0494515D0714513D0B94211D083
:100BC0006648183081420DD065486038814209D0AE
:100BD00063484838814205D061483038814201D0AD
:100BE0005F481838086820F001000860ABE0D1F8D1
:100BF00000C02CF00E08DFF854C1C1F80080ACF141
:100C0000180C0168614527D0914225D0994223D024
:100C1000A14221D049451FD071451DD0B9421BD0FA
:100C2000DFF838C10CF1180C614515D0DFF830C180
:100C3000ACF1600C61450FD0DFF824C1ACF1480C79
:100C4000614509D0DFF818C1ACF1300C614503D023
:100C5000DFF80CC1ACF1180CD1F800C02CF0010C7D
:100C6000C1F800C0DFF8E4804FF0010C0168A8F182
:100C70001808414546D0914244D0994242D0A14201
:100C800040D049453ED071453CD0B9423AD0334A74
:100C90001832914236D0324A603A914232D0304ACC
:100CA000483A91422ED02E4A303A91422AD02C4ACC
:100CB000183A914226D0594524D0514522D0A94214
:100CC00020D0B1421ED02A4A91421BD0284A143269
:100CD000914217D0264A2832914213D0244A3C32FE
:100CE00091420FD0224A503291420BD0204A6432B6
:100CF000914207D01E4A7832914203D01C4A8C326E
:100D0000914218D1016E0A6822F480720A6090F84C
:100D10005C20816D02F01F020CFA02F24A60D0E9F9
:100D200019124A60C16E31B10A6822F480720A60F9
:100D3000D0E91C124A600022016D80F835C080F8AD
:100D4000342001B188470020DCE600002800024082
:100D5000580002407000024088000240A00002409B
:100D60007004024088040240A0040240B80402401B
:100D7000085402582DE9FC5F0446F74E0020DFF8C6
:100D8000D88300904FF41652F44808F11808A56D66
:100D9000DFF8C493DFF8C0A3016809F130092068C7
:100DA0000AF1480AB1FBF2F1B04201912F68D5F87F
:100DB00000C0DFF8ACB335D04146884232D0484558
:100DC00030D050452ED058452CD0E54918318842B6
:100DD00028D0E3493031884224D0E1494831884263
:100DE00020D0E04988421DD0DE491831884219D010
:100DF000DC493031884215D0DA494831884211D077
:100E0000DFF860E30EF1600E70450BD0D54A783202
:100E1000904207D0D34B9033984203D0D149A831A8
:100E200088427DD194F85C20082102F01F0201FA6B
:100E300002F23A424AD0B04232D0404530D0484522
:100E40002ED050452CD058452AD0C54A1832904251
:100E500026D0C34A3032904222D0C14A4832904212
:100E60001ED0C04A90421BD0BE4A1832904217D0C2
:100E7000BC4A3032904213D0BA4A483290420FD026
:100E8000B84A603290420BD0B64A7832904207D0CE
:100E9000B44A9032904203D0B24AA832904203D171
:100EA000026802F0040202E0026802F008026AB17D
:100EB000026822F00402026094F85C0000F01F0057
:100EC0008140A960606D40F00100606594F85C00AD
:100ED000012100F01F008140394240D02068B0421B
:100EE00034D0404532D0484530D050452ED05845BA
:100EF0002CD09B4A1832904228D0994A30329042E6
:100F000024D0974A4832904220D0964A90421DD031
:100F1000944A1832904219D0924A3032904200E0FE
:100F2000AFE113D08F4A483290420FD08D4A6032E1
:100F300090420BD08B4A7832904207D0894A903247
:100F4000904203D0874AA83290427DD1406910F088
:100F5000800F04D0A960606D40F00200606594F8D5
:100F60005C00042100F01F00814039423ED020681F
:100F7000B04232D0404530D048452ED050452CD0DC
:100F800058452AD0764A1832904226D0744A3032D8
:100F9000904222D0724A483290421ED0714A90420A
:100FA0001BD0704A1832904217D06E4A30329042AD
:100FB00013D06C4A483290420FD06A4A6032904255
:100FC0000BD0684A7832904207D0664A90329042FD
:100FD00003D0644AA83290424ED1006810F0020F4C
:100FE00004D0A960606D40F00400606594F85C0076
:100FF000102100F01F008140394258D02068B042D3
:1010000034D0404532D0484530D050452ED0584598
:101010002CD0534A1832904228D0514A3032904254
:1010200024D04F4A4832904220D04E4A90421DD0A0
:101030004C4A1832904219D04A4A3032904215D068
:10104000484A4832904200E014E00FD0454A6032EE
:1010500090420BD0434A7832904207D0414A9032B6
:10106000904203D03F4AA832904207D1006800F076
:10107000080006E0006872E70068B7E7006800F063
:101080000400A0B1A96020680168490304D5006884
:10109000000308D5A16C07E00168C90503D4016805
:1010A00021F008010160216C09B12046884794F8BD
:1010B0005C00202100F01F008140394279D0206877
:1010C000B04232D0404530D048452ED050452CD08B
:1010D00058452AD0224A1832904226D0204A30322F
:1010E000904222D01E4A483290421ED01D4A904261
:1010F0001BD01C4A1832904217D01A4A3032904204
:1011000013D0184A483290420FD0164A60329042AB
:101110000BD0144A7832904207D0124A9032904253
:1011200003D0104AA832904203D1006800F01000AA
:1011300002E0006800F00200B0B3A96094F8350046
:101140000428206801680FD049037ED50068000399
:101150002BD4616C2AE00000100002400C00002437
:10116000700002401004024021F016010160206866
:10117000416921F080014161206C08B9A06C20B167
:101180002068016821F00801016094F85C303F217B
:10119000012003F01F0300229940A96084F8350064
:1011A00084F83420216D65E003E0E16B09B120464D
:1011B0008847606D00287DD0606DC00759D02068D9
:1011C000042184F83510B0422BD0404529D0484541
:1011D00027D0504525D0584523D09D49884220D05E
:1011E0009B49183188421CD099493031884218D027
:1011F0009849884215D097491831884211D09549AD
:10120000303188420DD093494831884209D0914904
:101210006031884205D08F497831884201D08D49AC
:101220009031016821F00101016020680099019A64
:10123000491C0091914202D80168C907F6D10068A3
:10124000C00710D003200FE0FFE70168C905ACD448
:1012500003680121002223F01003036084F8351095
:1012600084F83420A1E7012084F83500002084F8B8
:101270003400E16C00291DD002B02046BDE8F05FCB
:101280000847754988421DD073491431884219D0E6
:1012900071492831884215D06F493C31884211D0BC
:1012A0006D49503188420DD06B496431884209D074
:1012B000694900E084E07831884203D066498C3186
:1012C00088427DD194F85C800427016808F01F08EB
:1012D00007FA08F717EA0C0F009746D04F0744D5D6
:1012E00000980F04686003D5C8033CD4A16CC1E723
:1012F000880638D42068B0422DD0554960398842DC
:1013000029D0484527D0504525D0584523D05049AD
:10131000884220D04E49183188421CD04C49303187
:10132000884218D04B49884215D04A491831884222
:1013300011D04849303188420DD046494831884261
:1013400009D0704507D0904205D0984203D041495A
:10135000A831884203D1016821F0080102E0016848
:1013600021F004010160216C84E7022707FA08F7E5
:1013700017EA0C0F00974ED08F074CD500980F043A
:10138000686003D5C80344D4616C73E7880640D411
:101390002068B0422FD02E49603988422BD0484572
:1013A00029D0504527D0584525D02949884222D0F8
:1013B0002749183188421ED025493031884200E043
:1013C00044E018D02349884215D022491831884278
:1013D00011D02049303188420DD01E494831884211
:1013E00009D0704507D0904205D0984203D01949E2
:1013F000A831884203D1016821F0140102E001689C
:1014000021F00A010160012184F83510002084F8E0
:101410003400E16B2EE7082202FA08F212EA0C0F00
:1014200014D0090712D5016821F00E01016094F86B
:101430005C100120002201F01F0100FA01F1696037
:10144000606584F8350084F8342012E7BDE8FC9F1D
:101450008800024010040240085402582DE9F05F51
:10146000044600F0E7FA002C07467DD0E24E022148
:1014700020684FF00308DFF884934FF00005DFF891
:1014800080A3B042DFF87CB334D0DB4A18329042FC
:1014900030D048452ED050452CD058452AD0D94A76
:1014A0001832904226D0D74A3032904222D0D54AC4
:1014B000483290421ED0D44A90421BD0D24A1832B1
:1014C000904217D0D04A3032904213D0CE4A4832A0
:1014D00090420FD0CC4A603290420BD0CA4A783248
:1014E000904207D0C84A9032904203D0C64AA832F0
:1014F00090427DD184F83510B04284F834502ED01B
:10150000BD49183188422AD0484528D0504526D0B8
:10151000584524D0BB491831884220D0B9493031D0
:1015200088421CD0B7494831884218D0B649884211
:1015300015D0B5491831884211D0B34930318842AD
:101540000DD0B1494831884209D0AF496031884255
:1015500005D0AD497831884201D0AB49903101685E
:1015600021F00101016008E025E100BF00F062FA0E
:10157000C01B052801D920211AE120680068C00796
:10158000F4D1D4E902032168103418438E4694E85C
:101590008410D4E9033809683A4310439B4A40EA6F
:1015A0000C00676918431140103C40EA0800042F02
:1015B00040EA010003D1D4E90B12114308436168EA
:1015C000A1F12902052A0BD9163A032A08D9083AAB
:1015D000012A05D9083A032A02D97439032901D806
:1015E00040F48010CEF800002068676A406900E08F
:1015F00020E0042F20F0070047EA00070DD1D4E9CE
:101600000A01074349B12046FFF794F828B140206A
:101610006065012184F83510CDE0206847612046DF
:10162000FEF7A6FF94F85C203F2102F01F029140D4
:10163000816055E0764A90421BD0754B1433984236
:1016400017D0734B2833984213D0714B3C339842D8
:101650000FD06F4B503398420BD06D4B6433984290
:1016600007D06B4B7833984203D0694B8C33984248
:101670007ED184F8351084F83450664B0168A26836
:1016800001EA030E402A74D0802A73D05FF0000272
:10169000D4E90378D4E9053142EAD70242EAD8080E
:1016A0005B4AD4E9077C48EAD30848EAD10141EA19
:1016B000D701524241EA1C11142341EA0E01016094
:1016C00020681044B0FBF3F08000E0652046FEF790
:1016D0004FFF94F85C20012102F01F02914041600D
:1016E0002068B04257D044491831884253D0484509
:1016F00051D050454FD058454DD0424918318842BD
:1017000049D040493031884245D03E49483188422D
:1017100041D03D4988423ED03B49183188423AD0B9
:1017200039493031884236D037494831884232D041
:101730003549603188422ED03349783188422AD0E9
:1017400031499031884226D02F49A831884222D091
:101750002F4988421FD02E49143188421BD02C4972
:101760002831884217D02A493C31884213D002E000
:101770001DE017E018E02649503188420BD024497B
:101780006431884207D022497831884203D0204909
:101790008C31884229D12046FEF744FFA06880287A
:1017A0000CD00CE0102273E74FF4804270E7402128
:1017B000616584F835800120BDE8F09F6560216E89
:1017C00020790860D4E9190141606068401E07284B
:1017D00008D82046FEF774FFE06E0560D4E91C01CE
:1017E000416002E0E566256765670120656584F86C
:1017F00035000020E0E700001000024040000240F9
:101800005800024070000240100402403F8010FE69
:10181000085402580F00FEFF2DE9F84F03247A4DBB
:1018200000234FF001094FF0B04B4FF00F0AE4E0F6
:1018300009FA03F6324078D00F7907F00307012F39
:1018400001D0022F1AD187684FEA430ED1F80CC09D
:1018500004FA0EF827EA08070CFA0EFC4CEA070C0B
:10186000C0F808C0476891F804C0B743CCF3001C27
:101870000CFA03FC4CEA070CC0F804C00E79F643DE
:10188000B6070BD0C6684FEA43088F6804FA08FC15
:1018900026EA0C0607FA08F73743C7600E7906F008
:1018A0000306022E12D1DE080F694FEA437C00EBDB
:1018B0008606B646366A4FEADC6C0AFA0CF807FA76
:1018C0000CF726EA08063743CEF820700F79066831
:1018D0004FEA430807F0030704FA08FC07FA08F781
:1018E00026EA0C06374307604E6816F4403F1CD0CA
:1018F000464E376847F00207376036689F0706F0A4
:101900000206009623F0030606F1B046B6463F0FE6
:10191000D6F80864DFF8F8800AFA07FC404526EAA2
:101920000C0603D14FF0000C3AE065E0DFF8E4C0AC
:10193000604502D14FF0010C32E0DFF8DCC06045B9
:1019400002D14FF0020C2BE0DFF8D0C0604502D18D
:101950004FF0030C24E0DFF8C8C0604502D14FF01F
:10196000040C1DE0DFF8BCC0604502D14FF0050C4F
:1019700016E0DFF8B4C0604502D14FF0060C0FE06E
:10198000DFF8A8C0604502D14FF0070C08E0DFF88F
:10199000A0C0604502D14FF0090C01E04FF00A0CE5
:1019A0000CFA07FC4CEA060CCEF808C44F68DBF8CA
:1019B0000060FF0226EA020600D516435F46CBF818
:1019C0000060D1F804C0DBF804605FEA8C2C26EAE2
:1019D000020600D516437E606E684F6826EA02064E
:1019E000BF0300D516436E602E684F6826EA0206D4
:1019F000FF0300D516432E605B1C0A6832FA03F61B
:101A00007FF416AFBDE8F88F80000058F444025808
:101A1000000002580004025800080258000C025846
:101A2000001002580014025800180258001C0258F6
:101A3000002402580148806870470000000000241C
:101A400002488168027811448160704700000024D8
:101A5000032010B500F086F801F028F80F4A10496D
:101A600014681368C4F3032203F00F038A5CC95C93
:101A700002F01F0201F01F01D0400A4A20FA01F1D2
:101A80001160094908600F2000F010F808B101202A
:101A900010BD00F02BF8002010BD000018440258C3
:101AA00052470008100000240C00002470B50D4DB2
:101AB00004462878A0B14FF47A71B1FBF0F00A49DE
:101AC0000968B1FBF0F001F020FB48B9102C07D2F7
:101AD00000222146501E00F025F800206C6070BDE9
:101AE000012070BD000000240C000024054808B54A
:101AF000016841F002010160006800F002000090FE
:101B000008BD0000F4440258002809DB410900F038
:101B10001F028900012001F1E0219040C1F800017D
:101B2000704700000E4BF0B41B680D46C3F3022350
:101B3000C3F10706042E00D90426191D072901D276
:101B4000002300E0DB1E012404FA06F19C40491E3C
:101B50002940641E994014402143F0BC02F0B5BDF9
:101B60000CED00E0064900F0070210B54FF6FF0447
:101B70000868044B204040EA02201843086010BD6A
:101B80000CED00E00000FA05134970B50A68D24375
:101B9000520705D5096801F00701814213D118E009
:101BA0000A6822F0070202430A60FFF743FF0A4D6A
:101BB0004FF47A760446083D07E000BFFFF73AFF8E
:101BC000001BB04201D9012070BD2868C0438004C9
:101BD000F4D4002070BD00000C48025810B500F08D
:101BE0001FFF05490968054AC1F30211515C01F064
:101BF0001F01C84010BD0000204402585247000891
:101C0000494930B5484C0B1D0A68143409681D68F1
:101C1000246802F00303C5F30012C1F30531C4F3D5
:101C2000CC04002914FB02F200EE102AF8EE400A60
:101C300075D03F4A9FED3D1AB7EE000A6BB1DFED5C
:101C40003D1A012B01D0022B64D002EE101A11684C
:101C5000F8EE422A81EEA22A21E0334C283C236888
:101C60009B0612D5344B246801EE901A1168C4F318
:101C7000C104F8EE612AE34001EE903AC1F3080195
:101C8000F8EE611A81EEA22A0BE001EE901ADFED68
:101C90002B2A00BFF8EE611A116882EEA12AC1F367
:101CA000080101EE901A1168F8EE611A40EE811AEF
:101CB00071EE800A62EE200AC1F3462101EE101A8D
:101CC000B8EE411A31EE001AC0EE811ABCEEE11AEC
:101CD00080ED001A1168C1F3064101EE101AB8EE4A
:101CE000411A31EE001AC0EE811ABCEEE11A80ED05
:101CF000011A1168C1F3066101EE101AB8EE411A1B
:101D000031EE000A80EE801ABCEEC10A80ED020AB4
:101D100030BD04E001EE901ADFED092ABAE7002198
:101D2000016041608160F3E72844025800000039F7
:101D3000384402580024744A0090D0030024744CA4
:101D4000001BB74B494930B5484C0B1D0A681C3481
:101D500009681D68246802F00303C5F30022C1F37B
:101D60000551C4F3CC04002914FB02F200EE102A42
:101D7000F8EE400A75D03F4A9FED3D1AB7EE000AD3
:101D80006BB1DFED3D1A012B01D0022B64D002EEC6
:101D9000101A1168F8EE422A81EEA22A21E0334C93
:101DA000283C23689B0612D5344B246801EE901A18
:101DB0001168C4F3C104F8EE612AE34001EE903AE1
:101DC000C1F30801F8EE611A81EEA22A0BE001EEE0
:101DD000901ADFED2B2A00BFF8EE611A116882EE2F
:101DE000A12AC1F3080101EE901A1168F8EE611AF8
:101DF00040EE811A71EE800A62EE200AC1F346219C
:101E000001EE101AB8EE411A31EE001AC0EE811A36
:101E1000BCEEE11A80ED001A1168C1F3064101EE33
:101E2000101AB8EE411A31EE001AC0EE811ABCEE5B
:101E3000E11A80ED011A1168C1F3066101EE101A72
:101E4000B8EE411A31EE000A80EE801ABCEEC10AEB
:101E500080ED020A30BD04E001EE901ADFED092AA0
:101E6000BAE70021016041608160F3E7284402582D
:101E700000000039404402580024744A0090D00306
:101E80000024744C001BB74B2DE9FE4F0546DFF8CC
:101E900000A450F8081B0024FD4FC943019005F130
:101EA000280026460AF1240A009008011DD4686E15
:101EB00050B1B0F5801F0CD0B0F5001F0ED0B0F5BA
:101EC000401F1ED001240FE0386840F40030386015
:101ED00017E00198022101F08BFC03E00098022139
:101EE00001F016FD04000CD026462888C043C0052A
:101EF00023D4A86D05281ED2DFE800F00C11161BB4
:101F00001B006A6EDAF8001021F440111143CAF880
:101F10000010EAE7386840F40030386009E00198C2
:101F2000002101F065FC03E00098002101F0F0FCC5
:101F30000446C4B100E0012426462888DFF8508317
:101F4000C04308F12C0840052FD4D5F8A400B0F503
:101F5000C00F28D010DCB8B1B0F5001F19D0B0F513
:101F6000800F0FD11AE0AA6DDAF8001021F00701F6
:101F70001143CAF80010E0E7B0F5000F13D0B0F538
:101F8000200F10D001240FE0386840F40030386092
:101F900009E00198002101F02BFC03E000980021EA
:101FA00001F0B6FC044694B126462888C0430005DB
:101FB00030D4D5F8A800B0F1407F29D011DCC0B1F1
:101FC000B0F1807F1AD0B0F1007F10D11BE0D5F8BE
:101FD000A420D8F8001021F460011143C8F80010C3
:101FE000E3E7B0F1806F13D0B0F1A06F10D00124FF
:101FF0000FE0386840F40030386009E001980021B3
:1020000001F0F6FB03E00098002101F081FC04469A
:1020100094B126462868DFF878B2C0430BF1200B54
:1020200080011FD4E86CD8B110280FD0202812D01E
:10203000302815D0012414E0D5F8A820D8F80010D5
:1020400021F0E0611143C8F80010E3E7386840F47C
:102050000030386004E00198022101F0C9FB044619
:1020600074B126462888C043C0042BD4E86DB0F56F
:10207000005F20D00DDCA0B1B0F5805F0FD115E07E
:10208000EA6CDBF8001021F030011143CBF80010AE
:10209000E8E7B0F5405F13D0B0F5804F10D00124D1
:1020A0000FE0386840F40030386009E00198002102
:1020B00001F09EFB03E00098002101F029FC04469A
:1020C0008CB126462888C043800429D4286EB0F5F8
:1020D000403F23D010DC08B3B0F5803F14D0B0F5FA
:1020E000003F0FD115E0EA6DDAF8001021F4E0416D
:1020F0001143CAF80010E5E7B0F5802F0ED0B0F517
:10210000A02F0BD001240AE00198012101F070FBFF
:1021100003E00098012101F0FBFB044694B1264640
:102120002888C04340042AD4D5F8AC00B0F1405F01
:1021300023D010DC08B3B0F1805F14D0B0F1005FA1
:102140000FD115E02A6EDAF8001021F4E0211143D6
:10215000CAF80010E4E7B0F1804F0ED0B0F1A04F04
:102160000BD001240AE00198012101F041FB03E0BA
:102170000098012101F0CCFB044674B12646288862
:10218000C04300041FD4E86ED8B1B0F1805F0ED018
:10219000B0F1005F10D0012414E0D5F8AC20D8F8DD
:1021A000001021F0E0411143C8F80010E7E738685B
:1021B00040F40030386004E00198012101F018FB80
:1021C000044674B126462868C043C0011ED4A86CDA
:1021D000D0B101280ED0022811D0032814D0012438
:1021E00013E0EA6EDAF8001021F040511143CAF80A
:1021F0000010E8E7386840F40030386004E00198E7
:10220000022101F0F5FA04466CB126462868C04365
:10221000400255D41F48016841F480710160FFF706
:1022200009FC81460EE0AA6CDBF8001021F00301E6
:102230001143CBF80010E9E7FFF7FCFBA0EB090026
:1022400064283BD813480068C005F5D5BCBBDFF84F
:102250004090B5F8B01009F14409D9F8000001F434
:10226000407100F44070884211D0D9F80010D9F8BC
:10227000002021F4407142F48032C9F80020D9F8DE
:10228000002022F48032C9F80020C9F8001003E0D1
:102290002C44025800480258D5F8B000B0F5807FB1
:1022A00019D1FFF7C7FB029011E000BFFFF7C2FB97
:1022B0000299411A41F28830814208D90324264606
:1022C0002878DFF81494C043C00721D03CE0D9F847
:1022D00000008007EAD5D5F8B010C1F3012003282B
:1022E000FE480DD0016821F47C510160B5F8B020A2
:1022F000D9F80010C2F30B021143C9F80010DFE750
:10230000F74A036802EA111223F47C511143ECE707
:10231000A86F182816D005DCA0B1082808D010280E
:1023200004D10AE020280DD028280BD001240AE08F
:102330000198012101F05CFA03E00098012101F00D
:10234000E7FA044664B126462878C04380071ED4C5
:10235000686F062819D2DFE800F0160C1116161661
:10236000AA6FD9F8001021F038011143C9F8001004
:10237000EAE70198012101F03BFA03E0009801210E
:1023800001F0C6FA04467CB100E001242646287814
:10239000C04340071FD4D5F89000062819D2DFE8C3
:1023A00000F0160C111616166A6FD9F8001021F0FD
:1023B00007011143C9F80010E9E70198012101F074
:1023C00017FA03E00098012101F0A2FA0446A4B133
:1023D00000E0012426462878C04380062BD4D5F897
:1023E0008C00B0F1405F24D011DC10B3B0F1805FFD
:1023F00015D0B0F1005F10D116E0D5F89020D8F8D4
:10240000001021F007011143C8F80010E3E7B0F114
:10241000804F0ED0B0F1A04F0BD001240AE00198FC
:10242000002101F0E5F903E00098022101F070FAC3
:10243000044694B126462878C04340062BD4D5F8EC
:102440009800B0F5406F24D011DC10B3B0F5806F68
:1024500015D0B0F5006F10D116E0D5F88C20D9F862
:10246000001021F0E0411143C9F80010E3E7B0F596
:10247000805F0ED0B0F5A05F0BD001240AE0019878
:10248000002101F0B5F903E00098022101F040FAC3
:10249000044694B126462878C04300062BD4D5F8CC
:1024A0009C00B0F5C04F24D011DC10B3B0F5005F34
:1024B00015D0B0F5804F10D116E0D5F89820D8F897
:1024C000001021F4E0511143C8F80010E3E7B0F523
:1024D000004F0ED0B0F5204F0BD001240AE0019838
:1024E000002101F085F903E00098022101F010FAC3
:1024F000044654B126462878C04300071ED4D5F8B8
:102500008000B0F5805F0AD00FE0D5F89C20D8F8A5
:10251000001021F460411143C8F80010EBE7009867
:10252000022101F0F5F900B10126D5F88020D9F893
:10253000001021F440511143C9F800102878C0431D
:10254000C00613D4D5F89400B0F5807F05D100986B
:10255000022101F0DDF900B10126D5F89420D8F868
:10256000001021F440711143C8F800102868C043DE
:10257000000316D4D5F8A00038B1B0F5803F09D0DB
:10258000B0F5003F0BD001240AE00198002101F0D2
:102590002FF903E00098022101F0BAF904468CB14A
:1025A00026462868C043400322D4D5F88400B0F5FD
:1025B000801F11D0B0F5001F13D0B0F5401F15D00B
:1025C000012414E0D5F8A020D8F8001021F44031FF
:1025D0001143C8F80010E4E7386840F40030386070
:1025E00004E00098012101F093F904465CB126460D
:1025F0002868C043C0031CD4286D70B1B0F5803F7B
:1026000010D0012414E0D5F88420D9F8001021F46A
:1026100040111143C9F80010EAE7386840F400306F
:10262000386004E00198022101F0E2F80446DCB1D0
:1026300026462868C043800005D40098022101F096
:1026400067F900B101262868C04380031BD4E86FF6
:10265000B8B1B0F5807F10D0B0F5007F11D0B0F5E3
:10266000407F0ED001240DE02A6DDBF8001021F42C
:1026700080311143CBF80010DBE7386840F40030BC
:1026800038607CB326462868C043C00207D42A6F4E
:10269000DAF8001021F000411143CAF80010286850
:1026A000C043800207D4AA6EDAF8001021F08071CE
:1026B0001143CAF800102868C043400009D40748F5
:1026C000016821F4004101600168D5F8B42011438C
:1026D00001602868C04306E0544402581044025880
:1026E000CFFFFF001DE007D46A6DDBF8001021F07A
:1026F00040511143CBF800102868C043000208D4B1
:10270000D5F88820D9F8001021F440011143C9F808
:10271000001028790024C04300F00100204309D0B4
:102720000EE0EA6FD9F8001021F440711143C9F8A6
:102730000010A8E70198002101F05AF800B1064600
:102740002879C04300F00200204305D101980121FF
:1027500001F04EF800B106462879C04300F00400AD
:10276000204305D10198022101F042F800B106464C
:102770002879C04300F00800204305D100980021CB
:1027800001F0C6F800B106462879C04300F01000F9
:10279000204305D10098012101F0BAF800B10646A6
:1027A0002879C04300F02000044304D1009802219E
:1027B00001F0AEF800B916B10120BDE8FE8F00208F
:1027C000FBE700002DE9F05F04000F467ED0DFF844
:1027D0003882D8F8000000F00F00B8420CD2D8F8C8
:1027E000001021F00F013943C8F80010D8F800009C
:1027F00000F00F00B84269D12078844D40070AD517
:102800002069296801F07001884204D9296821F003
:1028100070010143296020787C4E361D00070AD5DF
:102820006069316801F07001884204D9316821F093
:102830007001014331602078C0060AD5A069316873
:1028400001F4E061884204D9316821F4E061014378
:1028500031602078DFF8B4B180060BF1080B0CD59D
:10286000E1695846DBF8002002F07002914204D979
:10287000026822F070020A430260207880070AD5BD
:10288000E068296801F00F01884204D9296821F025
:102890000F01014329602078C0073ED05B49A26840
:1028A0002868183920F47060104328606068022896
:1028B00018D0032819D00968012819D04907002920
:1028C0004ADADFF848A1AAF1080A00E044E0DAF8A1
:1028D000002022F007020243CAF80020FFF7AAF8FE
:1028E000814612E009688903E9E709688901E6E79A
:1028F000C905E4E7FFF79EF8A0EB090141F2883033
:10290000814202D90320BDE8F09F6168DAF8000037
:1029100000F03800B0EBC10FECD1207880070AD569
:10292000E068296801F00F01884204D2296821F08B
:102930000F0101432960D8F80010404601F00F0153
:10294000B9420BD9016821F00F01394301600068D9
:1029500000F00F00B84201D00120D4E720784007F2
:102960000AD52069296801F07001884204D22968DB
:1029700021F0700101432960207800070AD56069C1
:10298000316801F07001884204D2316821F0700191
:10299000014331602078C0060AD5A069316801F48E
:1029A000E061884204D2316821F4E0610143316082
:1029B000207880060CD5E1695846DBF8002002F04B
:1029C0007002914204D2026822F070020A4302604F
:1029D00000F06CF80E492A682B68C2F3032203F05A
:1029E0000F038A5CC95C02F01F0201F01F01D04096
:1029F000084A20FA01F11160074908600748006899
:102A0000BDE8F05FFFF752B80020005218440258AA
:102A100052470008100000240C0000240400002489
:102A200030B500F043F80B4A0B490C4B156814689D
:102A3000C5F3032204F00F048A5C095D02F01F0253
:102A400001F01F01D040064A20FA01F11960106020
:102A5000084630BD184402585247000810000024B0
:102A60000C00002400B5FFF7DBFF05490968054AA3
:102A7000C1F30211515C01F01F01C84000BD00000C
:102A80001C4402585247000800B5FFF7C9FF05492A
:102A90000968054AC1F30221515C01F01F01C840D9
:102AA00000BD00001C44025852470008454970B55B
:102AB00045480968434B103B11F0380208D001111A
:102AC000082A03D0102A0BD0182A0BD0084670BD54
:102AD00019688906FBD51968C1F3C101C84070BDEA
:102AE0003A4870BD3749374D18310C1D24350A68F6
:102AF000096826682D6802F0030406F00102C1F39C
:102B00000511C5F3CC0515FB02F200EE102AB8EE54
:102B1000400AE9B32F4ADFED2E0AB7EE001A6CB176
:102B2000DFED2D1A012C01D0022C43D002EE101A39
:102B30001068F8EE422A81EEA22A1EE01C68A40664
:102B400011D51B6801EE901A1168C3F3C103F8EEAA
:102B5000612AD84001EE900AC1F30800F8EE611A2C
:102B600081EEA22A0BE001EE901ADFED1C2A00BFD5
:102B7000F8EE611A106882EEA12AC0F3080001EE97
:102B8000900AF8EE611A40EE201A31EE810A00E058
:102B900015E022EE000A1068C0F34620401C00EE4B
:102BA000900AF8EE600A80EE201ABCEEC10A10EE20
:102BB000100A70BD01EE901ADFED092AD8E7002057
:102BC00070BD0000104402580090D00300366E0122
:102BD00000000039304402580024744A0024744C28
:102BE000001BB74B2DE9F05F04007DD0FF4F20782C
:102BF000FE4D1837DFF8F483103DC00748D0D8F8F1
:102C00000000396800F03800102815D0182803D1CA
:102C100001F0030002280FD06068B0F5803F12D0A9
:102C200010B1B0F5A02F18D0286820F480302860AB
:102C3000286820F4802009E02868800328D560688F
:102C40000028D2D024E0286840F4803028606068F2
:102C500088B1FEF7EFFE064609E0286840F48020C0
:102C60002860F0E7FEF7E6FE801B64287ED828681F
:102C70008003F7D50CE0FEF7DDFE064605E000BF59
:102C8000FEF7D8FE801B6428F0D828688003F7D4AC
:102C90002078800756D5D8F80000DFF850933968BF
:102CA00010F03800A9F10C090ED0182801D18807BE
:102CB0000AD0E068A8B3296821F01901014329600E
:102CC000FEF7B8FE064628E02868400702D5E0680F
:102CD00000288AD0E168286820F01900084328609D
:102CE000FEF7A8FE064606E0D2E000BFFEF7A2FE11
:102CF000801B0228BAD828684007F7D5217CD9F86C
:102D0000002022F0FE4242EA0161C9F8001019E0F9
:102D1000FEF790FE801B0228A8D828684007F7D548
:102D2000ECE7FFE7286820F001002860FEF782FE4C
:102D3000064604E0FEF77EFE801B022896D828682F
:102D40004007F7D42078C00646D5D8F80000DFF851
:102D50009C92396800F03800A9F10409082812D0C3
:102D6000182805D101F00300012800E0CEE00AD0C8
:102D7000E0690028286820D040F080002860FEF735
:102D800059FE064615E02868C00502D5E06980288E
:102D90007ED194F82010D9F8002022F07C5242EA2B
:102DA0000161C9F8001017E0FEF744FE801B0228FD
:102DB000A0D82868C005F7D5EBE720F08000286090
:102DC000FEF738FE064604E0FEF734FE801B0228BC
:102DD00090D82868C005F7D42078000729D5834803
:102DE0006169643000298146016811D041F0010118
:102DF0000160FEF71FFE064605E000BFFEF71AFE63
:102E0000801B022888D8D9F800008007F6D510E08A
:102E100021F001010160FEF70DFE064605E000BF4E
:102E2000FEF708FE801B022870D8D9F80000800742
:102E3000F6D42078800623D5A0690028286810D011
:102E400040F480502860FEF7F5FD064605E000BF1F
:102E5000FEF7F0FD801B022858D828688004F7D5BB
:102E60000EE020F480502860FEF7E4FD064604E002
:102E7000FEF7E0FD801B022848D828688004F7D4BC
:102E80002078400751D5DFF86891D9F8001000E0AC
:102E900015E141F48071C9F80010FEF7CBFD06463C
:102EA00005E000BFFEF7C6FD801B64282ED8D9F8C8
:102EB0000000C005F6D54D4EA068603601280AD046
:102EC00008B1052813D0306820F001003060306868
:102ED00020F0040002E0306840F001003060A0689B
:102EE00041F2883A98B1FEF7A5FD81460AE03068C4
:102EF00040F004003060EEE7FEF79CFDA0EB090116
:102F0000514503D830688007F6D50EE072E0FEF731
:102F100091FD814606E000BFFEF78CFDA0EB0901A4
:102F2000514567D830688007F6D4606A00287CD0A5
:102F3000DFF8B8A0D8F800100AF1200A4FF6F87BA5
:102F40000AF10408C1F3C2010329AAF104096DD0F2
:102F50000228286820F08070286003D0FEF76AFD00
:102F6000044681E0FEF766FD064604E0FEF762FDDA
:102F7000801B022875D828688001F7D4E26A40F2E5
:102F8000F331386854F8283F884340EA0210184368
:102F90003860217B4FF4FE0C22894FF0FE47208AD7
:102FA0004902267D521E401EA1F5007189B2C2F36E
:102FB00008021143761E0CEA00400143484607EA26
:102FC00006621143CAF80010D9F8001021F001017F
:102FD000C9F80010D8F80030266A23EA0B0343EA48
:102FE000C601C8F80010D9F8001004E010440258D7
:102FF0000048025835E0A26921F00C011143C9F8DC
:1030000000100168E26921F00201114301600168CA
:1030100041F480310160016841F4003101600168D0
:1030200041F480210160016801E06CE020E041F0A2
:1030300001010160286840F080702860FEF7FAFC0A
:10304000044604E0FEF7F6FC001B022809D82868B5
:103050008001F7D557E000BFFEF7ECFC001B02280B
:1030600002D90320BDE8F09F28688001F4D44AE02B
:1030700039680128DAF8000021D0A26A01F00303C0
:1030800093421CD1E26AC1F305118A4217D1216B28
:10309000C0F30802491E8A4211D1616BC0F3462277
:1030A000491E91420BD1A16BC0F30642491E9142C9
:1030B00005D1E16BC0F30660491E814201D00120B9
:1030C000D0E7A16C4646D8F80000C0F3CC0081429E
:1030D00019D0D9F800004D4620F00100C9F80000D1
:1030E000FEF7A8FC4FEA0007FEF7A4FCB842FBD0AD
:1030F000A26C306820EA0B0040EAC2003060286809
:1031000040F0010028600020ACE7401EB0F1807F55
:1031100010B501D3012010BD4FF0E02460610F21F4
:10312000601701F0D2FA0020A0610721216110BDD3
:1031300030B590F88410012918D0012280F884203D
:103140002421C0F888100022202401680B680D6833
:1031500023F0005325F001050D60426601680B6005
:10316000C0F8884080F88420104630BD022030BD71
:10317000024A904201D101F057B97047140000246F
:10318000704770B5044690F8840001281DD00122D4
:1031900084F884202420C4F8880020680568026828
:1031A00022F0010202602068826822F060620A4315
:1031B0008260204600F038FD226820210020156042
:1031C000C4F8881084F8840070BD022070BD70B50A
:1031D000044690F8840001281DD0012284F8842040
:1031E0002420C4F8880020680568026822F00102E3
:1031F00002602068826822F060420A4382602046B2
:1032000000F012FD2268202100201560C4F888100B
:1032100084F8840070BD022070BD7047704770470D
:103220002DE9F04107680025044640F60F03022609
:10323000F8693968BA6818420AD183067ED501F068
:10324000200302F0805C53EA0C0377D0616F74E1D5
:10325000CF4BDFF840C3134001EA0C0C53EA0C0CCF
:103260006CD05FEAC07C0CD05FEAC15C09D54FF03E
:10327000010CC7F820C0D4F8907047F00107C4F8DB
:103280009070870709D5D70707D027683E62D4F822
:10329000906046F00406C4F8906046070AD5D60749
:1032A00008D0276804263E62D4F8906046F00206F3
:1032B000C4F8906006070CD501F020061E4308D024
:1032C000266808233362D4F8903043F00803C4F82A
:1032D000903003050BD54B0109D526684FF40063E8
:1032E0003362D4F8903043F02003C4F89030D4F81F
:1032F0009030002B3DD0800609D501F0200002F06F
:103300008051084303D0616F09B120468847216886
:10331000D4F890008968490602D410F0280F2AD00A
:10332000204600F067FD2068806840061ED52068B2
:10333000083050E8001F21F0400100E021E040E8A3
:103340000012002AF3D1D4F8800078B192490165C7
:10335000D4F88000FDF7CCFB00280AD0D4F8800018
:10336000016D00E02046BDE8F04108472046FFF728
:1033700056FFBDE8F0812046FFF751FFC4F890509A
:10338000F7E7D4F86CC02023BCF1010F7ED15FEACF
:10339000C06C7BD55FEAC16C78D51020386220689C
:1033A0008068400673D5D4F880107C4A0868904243
:1033B00034D07A4A1832904230D0784A3032904233
:1033C0002CD0764A4832904228D0744A60329042DB
:1033D00024D0724A7832904220D0704A9032904283
:1033E0001CD06E4AA832904218D06D4A904215D037
:1033F0006B4A1832904211D0694A303290420DD057
:10340000674A4832904209D0654A6032904205D0FE
:10341000634A7832904201D0614A90324068000499
:10342000000CA6D0B4F85C208242A2D9A4F85E00B9
:10343000C869B0F5807F2FD0216851E8000F20F4D3
:10344000807041E80002002AF6D12068083050E878
:10345000001F21F0010140E80012002AF5D1206888
:10346000083050E8001F21F0400140E80012002A17
:10347000F5D1C4F88C30E566216851E8000F20F0E2
:10348000100041E80002002AF6D101E040E00BE024
:10349000D4F88000FDF77CF92667B4F85C00B4F836
:1034A0005E10401A81B22FE0B4F85C00B4F85E10F0
:1034B000B4F85E20401A81B2002AB2D00029B0D000
:1034C000226852E8000F20F4907042E80007002FB5
:1034D000F6D1344F206800F1080050E8002F02EACE
:1034E000070240E8002CBCF1000FF3D1C4F88C3087
:1034F000E5666567206850E8002F22F0100240E87A
:103500000023002BF6D126672046FFF731FE30E777
:10351000C60209D5560207D54FF4801038622046FE
:10352000BDE8F041FFF77ABE06060AD501F0800635
:1035300002F40002164304D0A16F00297FF412AFF9
:1035400017E7420611D54A060FD52046026852E811
:10355000001F21F0400142E80014002CF6D1C0F811
:103560008830856700F0D4F803E7020206D54A00E8
:1035700004D52046BDE8F041FFF74FBEC001C6D5D7
:103580000029C4DA2046BDE8F041FFF7F9BD00008C
:103590000100001020010004DF3D0008100002407F
:1035A00010040240FEFFFFEF10B5040003D0D4F872
:1035B000880010B107E0012010BD002084F88400CD
:1035C000204600F027F82420C4F88800206801680D
:1035D00021F001010160A06A10B1204600F046FB15
:1035E000204600F031FC0128E6D02068416821F433
:1035F000904141602068816821F02A018160206843
:10360000016841F0010101602046BDE8104000F072
:1036100091BB000070B5B4B0064614212EA8FCF78B
:103620003CFFB8216846FCF738FF334930688842D0
:103630005FD100201D9002210546CDE900106846AB
:10364000FEF722FC08B1FDF7A0F82C48016841F410
:1036500080110160006800F480103390274808381A
:10366000016841F002010160016801F0020133913B
:10367000016841F008010160006802242EAA00F0F0
:103680000800339020030E2182E83100CDE931514A
:103690001B482EA9FEF7C0F82EAA0420082182E8B4
:1036A0003100CDE9315117482EA9FEF7B5F8164C77
:1036B00041211648021520608315C4E90115C4E9AB
:1036C000035265614FF44030C4E90653C4E908056C
:1036D0002046FDF7C3FE08B1FDF757F80022C6F8F3
:1036E000804035201146A663FEF71CFA3520FEF710
:1036F0000BFA34B070BD000000500040E84402589E
:1037000000040258000C0258A800002410000240D7
:103710007047FEE7094808B5016841F00101016002
:1037200000680022114600F0010000900B20FEF717
:10373000F9F9BDE808400B20FEF7E6B9D844025875
:103740000D4808B5016841F080010160016801F091
:1037500080010091016841F002010160016801F0FF
:1037600002010091016841F008010160006800F069
:103770000800009008BD0000E044025818480021ED
:103780002DE9F041154A0C24C0E90541C1610162EF
:103790009514144B561441621715816280E8EC00B1
:1037A000FFF702FF08B1FCF7F0FF0D480021FFF71B
:1037B0000EFD08B1FCF7E9FF09480021FFF7E1FC25
:1037C00008B1FCF7E2FF0648FFF7B2FC002803D07F
:1037D000BDE8F041FCF7D9BFBDE8F08100500040E2
:1037E00014000024A0860100FEE7FEE770470000F9
:1037F0002DE9F047454D044689464FF0000A2868F8
:10380000C04380070AD0414E283E306820F08060D7
:103810003060FEF70FF90746B04608E00120BDE82A
:10382000F08700BFFEF706F9C01B022867D8D8F85A
:1038300000000001F6D4206829684FF4FE0721F447
:103840007C313E0241EA00302860207AA389B4F836
:1038500004C040022D4D2D495B1E227CACF1010CB1
:103860001035091DA0F5007080B2521ECCF3080C73
:1038700007EA034340EA0C00184306EA02621043D9
:1038800028600868626920F0C000104308600A6878
:10389000A06922F0200202430A60281D0A6822F073
:1038A00010020A6002684FF6F873E4699A4342EA2C
:1038B000C40202600868B9F1000F40F010020A600B
:1038C00011D00868B9F1010F11D040F40010086060
:1038D000D8F80000444640F08060C8F80000FEF7C9
:1038E000A9F805460DE0086840F40020EFE740F431
:1038F0008010ECE7FEF79EF8401B022801D9032058
:103900008DE720680001F5D5504688E72844025825
:103910002DE9F047454D044689464FF0000A2868D6
:10392000C04380070AD0414E283E306820F08050C6
:103930003060FEF77FF80746B04608E00120BDE89A
:10394000F08700BFFEF776F8C01B022867D8D8F8CA
:1039500000008000F6D4208829684FF4FE0721F08B
:103960007C713E0241EA00502860207AA389B4F8B5
:1039700004C040022D4D2D495B1E227CACF1010C90
:103980001835091DA0F5007080B2521ECCF3080C4A
:1039900007EA034340EA0C00184306EA02621043B8
:1039A00028600868626920F44060104308600A6873
:1039B000A06922F4007202430A60281D0A6822F4FA
:1039C00080720A6002684FF6F873E4699A4342EA2B
:1039D000C40202600868B9F1000F40F480720A6006
:1039E00011D00868B9F1010F11D040F08070086063
:1039F000D8F80000444640F08050C8F80000FEF7B8
:103A000019F805460DE0086840F48000EFE740F43F
:103A10000000ECE7FEF70EF8401B022801D9032056
:103A20008DE720688000F5D5504688E72844025885
:103A300070B500283ED020490288C2F30A050D80E7
:103A40004278A5F580658378D20842EA4312C2F332
:103A50000A034B808278A3F58063C47806799209C3
:103A600042EA840242EA8622C2F30A048C80027986
:103A7000A4F580644679520842EAC612C2F30A02EB
:103A8000CA804679A2F58062B6090E724679C6F3FD
:103A900001164E72C6884E8106898E814689CE8176
:103AA000067B0E74467B4E74807B48820D804B8073
:103AB0008C80CA8070BD0000200100247047FDF793
:103AC000BFBF000070B59CB04C216846FCF7E5FC18
:103AD000202113A8FCF7E1FC0220FEF755F81E4850
:103AE000016821F4404101600168002401F4404173
:103AF0001B9101688904FCD502200A9028230990B3
:103B0000C20301210D910425CDE90012CDE90B037B
:103B10000C261294CDE90E50CDE910646846FFF7EB
:103B200061F808B172B6FEE740201A90082305013B
:103B3000CDE9163013ABCDE918053F21032283E808
:103B4000160013A81146FEF73DFE002801D072B6FC
:103B5000FEE71CB070BD0000184802582748F0B5B9
:103B6000274A016841F470010160106800F00F00FD
:103B7000072804D2106820F00F00C01D10602149F2
:103B80000020204C10340B681F4D43F001030B60E4
:103B900020600B682B400B60136803F00F03072BAA
:103BA00004D9136823F00F03DB1D1360154C174A6B
:103BB0001834174B261D371D2060124C154D283424
:103BC0003060261D3860371D23603B1D35601C1D8D
:103BD0003A60251D2E1D1860331D2260286032605A
:103BE00018600A6843F2D204064B0B4D22F480227F
:103BF00060330A6018602C60F0BD000088ED00E0C2
:103C000000200052004402587FEDF6EA80020101D4
:103C1000000202020000FF01004000520148FFF7CD
:103C2000FFBA00001400002430B5416EB9B101683C
:103C30000D4B03F108048A688968C2F34262490F98
:103C40005D5C615C2D01B5FBF1F1A0F86A10995C37
:103C5000A25C0901B1FBF2F1A0F8681030BD0121AE
:103C6000A0F86A10F8E700003A47000890F828101A
:103C7000090706D50168836B4A6822F400421A439B
:103C80004A6090F82810C90706D00168C36A4A68DC
:103C900022F400321A434A6090F82810890706D5AA
:103CA0000168036B4A6822F480321A434A6090F834
:103CB0002810490706D50168436B4A6822F4802220
:103CC0001A434A6090F82810C90606D50168C36BEC
:103CD0008A6822F480521A438A6090F82810890674
:103CE00006D50168036C8A6822F400521A438A6080
:103CF00090F82810490611D50168436C4A6822F4EF
:103D000080121A434A60416CB1F5801F06D10168E8
:103D1000836C4A6822F4C0021A434A6090F8281063
:103D2000090606D50168C26C486820F400201043DB
:103D3000486070472DE9F84300250446C0F89050CC
:103D4000FDF778FE8046206820266FF07E470068E9
:103D5000000713D50022434631042046009700F0A7
:103D600061FA58B1216851E8000F20F0800041E865
:103D70000002002AF6D1C4F8886021E020680068BB
:103D8000400722D5002243464FF480012046009789
:103D900000F048FAC8B1206850E8001F21F4907183
:103DA00040E80012002AF6D12068083050E8001FD1
:103DB00021F0010140E80012002AF5D1C4F88C601E
:103DC000032084F88450BDE8F883C4F88860C4F800
:103DD0008C60E5662567002084F88450F3E710B511
:103DE000806B0021A0F85E10A0F85610FFF717FABC
:103DF00010BD000010B5026852E8001F21F4907158
:103E000042E80013002BF6D10E4B0268083252E84C
:103E1000001F194042E80014002CF6D1C16E0129A0
:103E200008D1026852E8001F21F0100142E8001397
:103E3000002BF6D100212022C0F88C20C1664167FA
:103E400010BD0000FEFFFFEF2DE9F043044680683F
:103E5000E24E87B0E24B2168D4E90427D4F81CC0B5
:103E600010430A68002547EA0C07384332400243F2
:103E70000A602068E268416821F4405111434160C2
:103E80002268A1699A4201D0206A01439668DFF84E
:103E900054C3D54FD54806EA0C060E4396602168F8
:103EA000666ACA6A22F00F023243CA622268BA42C4
:103EB0000ED1006800F0380018286FD07ADCB8B353
:103EC00008286CD010286BD18BE0282868D18EE0B0
:103ED000C7498A4209D1006800F0070006285FD26E
:103EE000DFE800F0507D7F818385C2498A4209D195
:103EF000006800F0070006287BD2DFE800F043707E
:103F000072747678BC498A4209D1006800F00700D3
:103F100006286ED2DFE800F036636567696BB74943
:103F20008A420BD1006800F00700062861D200E049
:103F300043E0DFE800F0275456585A5CB0498A4203
:103F400006D1006800F0380018284CD0B7DD31E009
:103F5000AC498A4209D1006800F00700062848D21F
:103F6000DFE800F0103D3F414345A7498A420BD1AD
:103F7000006800F0070006283BD2DFE800F00330BD
:103F800032343638002035E0A0498A4209D1006831
:103F900000F03800182826D091DD0BE023E01EE069
:103FA00027E09B498A420AD1006800F038001828AF
:103FB00019D084DD202888D11CE001201AE09A4223
:103FC00017D18A48001D006800F00700062810D2AB
:103FD000DFE800F0030507090B0D02200AE00420CA
:103FE00008E0082006E0102004E0202002E0402045
:103FF00000E080208749DFF820829A42874A4FF408
:1040000000434FEA21174FF000064ED110281AD076
:1040100006DC022809D004280BD008287ED10DE048
:1040200020283ED0402879D13DE0FDF7D7FD01465C
:1040300010E06846FDF7E4FD01990BE003A8FDF7E9
:1040400081FE049906E01068800605D51068C0F36B
:10405000C100C140002970D0606A676838F810203C
:1040600007EB4703B1FBF2F0834257D8B0EB073FB1
:1040700054D8002308461946FCF798F902467808F8
:10408000130E120243EA012110183A46714100232F
:10409000FCF78CF9624AA0F5407191423ED8216844
:1040A0008FE03946D8E71946D6E7D4F81CC04FF65A
:1040B000EF799C4546D1082819D005DC58B1012874
:1040C0000CD0042875D10DE0102815D0202835D04B
:1040D00040286ED134E0FEF7C5FC01E0FEF7D4FCC9
:1040E000014610E06846FDF78BFD01990BE003A83F
:1040F000FDF728FE049906E01068800604D51068D4
:10410000C0F3C100C140C1B1636A606838F81330C0
:10411000B1FBF3F1490001EB500100E049E0B1FBD4
:10412000F0F0A0F11001494543D84FF6F073216833
:10413000C0F342021840104343E043E03946E3E74E
:104140001946E1E7082819D005DC58B101280CD040
:1041500004282ED10DE0102815D020282BD040287F
:1041600027D12AE0FEF77EFC01E0FEF78DFC014638
:1041700010E06846FDF744FD01990BE003A8FDF748
:10418000E1FD049906E01068800604D51068C0F3CC
:10419000C100C140B1B1636A606838F81330B1FB47
:1041A000F3F101EB5001B1FBF0F0A0F11001494532
:1041B00005D9012506E03946EDE71946EBE7216808
:1041C00080B2C8600120A4F86A00A4F868002846FC
:1041D0006667A66707B0BDE8F0830000F369FFCF0C
:1041E000000C0058FFF4FF11001001405444025825
:1041F0000044004000480040004C00400050004097
:104200000014014000780040007C0040001801408C
:10421000001C01400090D0032247000800440258CF
:10422000FFFC0F002DE9F047994617460D4604465E
:10423000089E4FF0000833E0701C31D0FDF7FAFB08
:10424000A0EB0900B04218D8BEB120680168490748
:1042500026D5802D24D0402D22D0C169C94309071D
:104260000DD4082505622046FFF7C4FDC4F8905020
:10427000012084F88480BDE8F0870320FBE7C06953
:10428000C04300050CD421684FF40060086220464A
:10429000FFF7B0FD2021C4F8901084F88480ECE78B
:1042A0002068C06935EA000004D00020B842C3D0BD
:1042B0000020E0E70120F9E72DE9FF4F0122C26667
:1042C00002210167A0F85C3001688E68544C544D9F
:1042D00046F0400C524E1834514F3035504A483653
:1042E0006037C1F808C00168DFF834A1DFF834B1E5
:1042F000DFF830C10AF1900AD1F800800BF1180BF9
:10430000DFF82091DFF81CE148F0100809F190096E
:10431000C1F800800EF1A80ED0F880100968914213
:1043200029D0A14227D0A94225D0B14223D0B942F9
:1043300021D0DFF8EC8008F1780841451BD05145C9
:1043400019D0DFF8DC8008F1A808414513D0614599
:1043500011D059450FD0DFF8CC8008F13008414525
:1043600009D0DFF8C08008F14808414503D0DFF8E4
:10437000B48008F16008D1F8008028F00108C1F885
:104380000080D0F8801009680968C907C4D1D0F846
:10439000808050F8801B2431D8F80080C8F80810BD
:1043A0000168D1F800800199C8F80C100168D1F8B3
:1043B00000800299C8F81010016809684B60016814
:1043C00009680B6843F480230B6000680068904222
:1043D0001FD0A0421DD0A8421BD0B04219D0B84275
:1043E00017D00F497831884213D0504511D00C496D
:1043F000A83188420DD060450BD0584509D00949F5
:104400003031884205D007494831884201D00549FA
:104410006031016841F001010160BDE8FF8F0000DB
:1044200010000240100402402DE9F04F0446D0F87D
:104430008000A04E24229F4FDFF878821836006853
:104440003037DFF8709208F148089A4D09F1600999
:104450000368DFF864A2DFF864B21B03984B79D4D9
:10446000984235D0A84233D0B04231D0B8422FD094
:1044700040452DD048452BD0DFF838C20CF1780CE0
:10448000604525D0DFF82CC20CF1900C60451FD0A0
:10449000DFF824C2ACF1300C604519D0DFF818C247
:1044A000ACF1180C604513D0504511D0DFF808C2AC
:1044B0000CF1180C60450BD0584509D0DFF8FCC151
:1044C0000CF1180C604503D0DFF8F0C10CF1300C92
:1044D000D0F800C02CF0010CC0F800C0D4F8800067
:1044E0000068D0F800C04CF4002CC0F800C0D4F82C
:1044F00080000068984227D0A84225D0B04223D03F
:10450000B84221D040451FD048451DD0694B783373
:10451000984219D0674B9033984215D0664B303B88
:10452000984211D0644B183B98420DD050450BD0A7
:10453000614B1833984207D0584505D05F4B18336C
:10454000984201D05D4B3033426012297DD15D48E5
:1045500079E0FFE7984235D0A84233D0B04231D05D
:10456000B8422FD040452DD048452BD0DFF844C16C
:104570000CF1780C604525D0DFF838C10CF1900CB7
:1045800060451FD0DFF830C1ACF1300C604519D068
:10459000DFF824C1ACF1180C604513D0504511D0A0
:1045A000DFF814C10CF1180C60450BD0584509D048
:1045B000DFF808C10CF1180C604503D0DFF8FCC02F
:1045C0000CF1300CD0F800C02CF0010CC0F800C089
:1045D000D4F880000068D0F800C02CF4002CC0F89B
:1045E00000C0D4F880000068984227D0A84225D0A7
:1045F000B04223D0B84221D040451FD048451DD0FD
:104600002C4B7833984219D02A4B9033984215D0CE
:10461000294B303B984211D0274B183B98420DD084
:1046200050450BD0244B1833984207D0584505D03D
:10463000224B1833984201D0204B3033426012296C
:1046400003D120481230FFF7F3F9D4F880001C4959
:104650000068884227D0A84225D0B04223D0B84273
:1046600021D040451FD048451DD01249783188429D
:1046700019D010499031884215D00F4930398842FD
:1046800011D00D49183988420DD050450BD00A4938
:104690001831884207D0584505D00849183188425A
:1046A00001D006493031016841F001010160BDE8E7
:1046B000F08F0000280002404004024070040240D5
:1046C0001000024034010024FEE7090700284FEAE9
:1046D000116104DB00F1E02080F80014704700F065
:1046E0000F0000F1E02080F8141D7047FDF7B0F9CD
:1046F000FFF7E8F9FFF724F8FFF70CF8FFF73EF8AB
:10470000034A24230348A2F11201FFF7D5FDFEE777
:1047100046010024140000244FF04070E1EE100A1E
:104720007047010002000400060008000A000C00A7
:10473000100020004000800000010101010307017A
:10474000000008040204080101010006101600061A
:104750001016000000000102030401020304060712
:10476000080900008447000800000024140000002D
:10477000080300089847000814000024A40700005C
:1047800024030008010000001000000000000000E9
:084790000090D0030090D0035B
:04000005080002CD20
:00000001FF
