:020000040800F2
:1000000070080020890100081F170008F515000876
:100010001D1700088F0200088D1A0008000000005C
:10002000000000000000000000000000631800084D
:1000300007030008000000006118000865180008A8
:10004000A3010008A3010008A3010008A301000800
:10005000A3010008A3010008A3010008A3010008F0
:10006000A3010008A3010008A3010008A3010008E0
:10007000A3010008A3010008D1020008A3010008A1
:10008000A3010008A3010008A3010008A3010008C0
:10009000811A0008C5020008A3010008A301000896
:1000A000A3010008A3010008A3010008A3010008A0
:1000B000A3010008A3010008A3010008A301000890
:1000C000A3010008A3010008A3010008A301000880
:1000D000A3010008A3010008A3010008A301000870
:1000E000A3010008A3010008A301000800F002F822
:1000F00000F03AF80AA090E8000C82448344AAF188
:100100000107DA4501D100F02FF8AFF2090EBAE885
:100110000F0013F0010F18BFFB1A43F0010318473B
:100120001424000034240000103A24BF78C878C199
:10013000FAD8520724BF30C830C144BF04680C60ED
:10014000704700000023002400250026103A28BF35
:1001500078C1FBD8520728BF30C148BF0B60704739
:100160001FB51FBD10B510BD00F058F81146FFF7C0
:10017000F7FF01F035FD00F076F803B4FFF7F2FF6A
:1001800003BC00F07DF8000009488047094800479B
:10019000FEE7FEE7FEE7FEE7FEE7FEE7FEE7FEE737
:1001A000FEE7FEE704480549054A064B7047000094
:1001B000C5180008ED00000870020020700800203B
:1001C00070040020700400204FF0000200B51346B8
:1001D00094469646203922BFA0E80C50A0E80C5067
:1001E000B1F12001BFF4F7AF090728BFA0E80C5018
:1001F00048BF0CC05DF804EB890028BF40F8042B11
:1002000008BF704748BF20F8022B11F0804F18BF7D
:1002100000F8012B7047704770477047754600F033
:100220002BF8AE4605006946534620F00700854688
:1002300018B020B5FFF7B6FFBDE820404FF000062C
:100240004FF000074FF000084FF0000B21F00701BE
:10025000AC46ACE8C009ACE8C009ACE8C009ACE801
:10026000C0098D46704710B50446AFF300802046A4
:10027000BDE81040FFF781BF004870471002002022
:1002800001491820ABBEFEE7260002007047FEE7DA
:1002900000B58BB000210122CDE906120591009135
:1002A00001910291CDE903126946089200F094F899
:1002B000002803D102490888401C08800BB000BD0B
:1002C0001C000020014800F078B900002400002044
:1002D000014800F09FBB00009400002030B590F86A
:1002E00040500124AC40C56B6C6004686360436897
:1002F000102B036803D099600068C26030BD9A601B
:100300000068C16030BD704772B6FEE70870020A2F
:100310004A70020C8A70000EC8707047F0B590F8F1
:1003200020500468A468012D05D0022D03D0416A35
:1003300041F480214DE014F0406F01D1E50045D536
:10034000C4F301640125A5401D608B684FF4C0759E
:100350009BB1CE6833434E6843EAC603066805EB9B
:100360000417F3514FF4C273076803EB04130E69CB
:10037000FE50097D012905D009E00E88CB6843EACB
:100380004653EBE70168CE5846F48076CE5011799B
:10039000D2F805304FF4C67641EA0321036806EB34
:1003A000041699511178D2F801204FF4C47341EA30
:1003B0000221026803EB0413D150006805EB04111D
:1003C000425842F0010242500020F0BD416A41F41F
:1003D000001141620120F0BD10B590F82030026894
:1003E000012B07D0022B05D0416A41F480214162E4
:1003F000012010BDD2F8000240F00100C2F8000256
:10040000087D00F01F0301209840D2F81C3283437E
:10041000C2F81C32CB69B3B9D2F80C328343C2F8AC
:100420000C328C894B6864F31F434C6902EBC404A3
:10043000C4F840320C890B6864F31F434C6902EB2B
:10044000C404C4F84432CB69012B16D1D2F80C3263
:100450000343C2F80C320C884B6864F31F434C69A9
:1004600002EBC404C4F840320C89CB6864F31F4328
:100470004C6902EBC404C4F844328B69002BD2F8F7
:1004800004320ED00343C2F804320B69002BD2F8B9
:10049000143208D00343C2F81432096A012904D087
:1004A00008E08343EFE78343F5E7D2F81C120143EA
:1004B000C2F81C12D2F8000220F00100C2F80002BB
:1004C000002010BD704770B590F82040012C05D079
:1004D000022C03D0416A41F4802128E0046809B36A
:1004E0002469A40720D04FF4D874056804EB0114E4
:1004F0002D5915F00405956005682D591AD0ED08A1
:10050000556005682C5904F00204D4604FF4DA7485
:10051000056804EB01142E5906F00F06082E0CD3C3
:1005200008250DE0E468DCE7416A41F4001141620E
:10053000012070BD6D0D1560E3E72D5905F00F0525
:10054000156105682D59C5F30725956105682C5976
:10055000240C54614FF4DC72046802EB0112A458BD
:100560001C700468A458240A5C700468A458240C05
:100570009C700468A258120EDA704FF4DE720468A0
:1005800002EB0112A4581C710468A458240A5C717F
:100590000468A458240C9C710468A258120EDA71E5
:1005A000006829B1016941F020010161002070BD9E
:1005B000C16841F02001C160F8E72DE9F05F054610
:1005C000006800244669D0F804908768D0F80CB021
:1005D000D0F810A0D0F81880F10748D0F90714D04F
:1005E00001218160B80703D5284600F00CFA0CE021
:1005F000780702D54FF4006407E0380702D54FF4BE
:10060000805402E0284600F0FDF9F80516D5296867
:100610004FF480708860B80503D5284600F0F5F9DE
:100620000CE0780502D544F4005407E0380502D503
:1006300044F4804402E0284600F0E6F9F80316D5B9
:1006400029684FF480308860B80303D5284600F04D
:10065000DEF90CE0780302D544F4004407E03803E7
:1006600002D544F4803402E0284600F0CFF9300788
:1006700007D55FEACB6004D52968102044F40074E4
:10068000C86070074FF0080707D55FEA0B7004D504
:100690002868C760284600F061F9B00706D52868C9
:1006A000C068800702D0284600F05AF9700607D5C6
:1006B0005FEACA6004D52968102044F480640861A8
:1006C000B00607D55FEA0A7004D528680761284696
:1006D00000F058F9F00606D528680069800702D0B6
:1006E000284600F051F9B00308D55FEAC96005D586
:1006F000296810204860284600F058F9F00307D513
:100700005FEA097004D528684760284600F080F940
:10071000300446D55FEA497040D5F00504D55FEA5C
:10072000C87001D044F00104B00504D55FEA8870B8
:1007300001D544F00204700504D55FEA487001D584
:1007400044F00404300529D518F0700F26D008F0C5
:100750007000402815D006DC102809D020280AD0C7
:10076000302816D10AE050280ED0602811D10EE0B2
:1007700044F008040DE044F010040AE044F02004C2
:1007800007E044F0400404E044F0800401E044F455
:1007900080742868816921F07001816129680420D2
:1007A0004860002C05D0686A204368622846FFF73D
:1007B00089FEBDE8F09F70B5040003D094F82000D6
:1007C00010B104E0012070BD204600F081F82068DF
:1007D000016841F00101016000F026FB0546052695
:1007E00004E000F021FB401B0A2811D82068406873
:1007F000C007F6D02068016821F00201016000F016
:1008000013FB05460BE000F00FFB401B0A2806D93E
:10081000606A40F40030606284F82060D2E72068AB
:1008200040688007EFD4207E0128206801683DD011
:1008300021F080010160607E01282068016838D0C5
:1008400021F040010160A07E01282068016833D0BA
:1008500021F020010160E07E0128206801682ED08F
:1008600041F010010160207F01282068016829D033
:1008700021F008010160607F01282068016824D010
:1008800021F004010160D4E902010843D4E9041213
:10089000114308436168491E08432168C86100206C
:1008A0006062012084F82000002070BD41F08001CA
:1008B000C0E741F04001C5E741F02001CAE721F05F
:1008C0001001CFE741F00801D4E741F00401D9E776
:1008D00010B586B00021009101910291039100684A
:1008E0001B49884232D11B48C16941F00071C16186
:1008F000C16901F000710491816941F004018161D5
:100900008069154C00F0040004904FF400600090E2
:100910006946204600F0A2F9A1140091022101913C
:10092000032103916946204600F098F90022114600
:10093000142000F0E5FA142000F0D4FA0022114649
:10094000152000F0DDFA152000F0CCFA06B010BD3D
:1009500000640040001002400008014070470000A1
:1009600000B589B007AB6A460021FFF7ACFD00284F
:1009700003D107A9024801F0AFF809B000BD00009B
:10098000D80000207047000000B589B007AB6A4668
:100990000021FFF798FD002803D107A9024801F0C4
:1009A0009BF809B000BD0000D8000020704770B56A
:1009B000044690F82000012804D0606A40F400202A
:1009C000606217E0022084F820002068016821F0AE
:1009D0000101016000F028FA05460DE000F024FA5C
:1009E000401B0A2808D9606A40F400306062052084
:1009F00084F82000012070BD20684068C007EDD158
:100A0000606270BD704770477047704770477047AD
:100A1000704700002DE9F05FC16B0B6801680A6840
:100A2000046C4FF0040C0CFA04FC4A4DDFF828A1CA
:100A30004A4E4B4FDFF82CB1DFF82CE11CEA030FD4
:100A40002DD05FEA427C2AD50A68920603D40A6850
:100A500022F004020A600168A94201D1042119E0D0
:100A6000514501D1402115E0B14202D14FF48061DE
:100A700010E0B94202D14FF480410BE0594502D158
:100A80004FF4802106E0714502D14FF4800101E06E
:100A90004FF080612F4A083A5160C16A3BE04FF045
:100AA000020808FA04F818EA030F4FF000094FF0A3
:100AB000010C35D05FEA827832D50A68920605D4F7
:100AC0000A6822F00A020A6080F821C00168A9427F
:100AD00001D1022119E0514501D1202115E0B14297
:100AE00002D14FF4007110E0B94202D14FF400512D
:100AF0000BE0594502D14FF4003106E0714502D1B7
:100B00004FF4001101E04FF00071124A083A5160B1
:100B100080F82090816A00291AD0BDE8F05F08476C
:100B20000825A5401D4213D0120711D50A6822F0EE
:100B30000E020A6090F84010C26B0CFA01F151608D
:100B4000C0F838C080F821C080F82090016BE2E73F
:100B5000BDE8F09F080002401C0002403000024047
:100B600044000240580002406C00024030B528B3F7
:100B700002C8134A14230A44B2FBF3F29200C26380
:100B8000104A8263022242770B6843F6F072934365
:100B9000D0E900242243D0E902452C4322430469D2
:100BA000224344692243846922431A430A60002194
:100BB0004163012242770177084630BD012030BDF4
:100BC000F8FFFDBF0000024070B5044690F8200019
:100BD000002501280CD0012084F8200094F8216021
:100BE0000020012E06D084F820000225284670BD82
:100BF000022070BD022684F82160A0632068066888
:100C000026F0010606602046FFF768FBE06A002830
:100C10002068016802D041F00E0106E021F00401D5
:100C200001602068016841F00A01016020680168E4
:100C300041F001010160D9E770B5044600F0F4F815
:100C40000546601C02D004480078044400F0ECF82B
:100C5000401BA042FAD370BD0C0000202DE9F84FD4
:100C6000DFF8A4910024A9F1040B23464FF00F08EC
:100C700009F1040AABF1040EBEE00127A7403A4097
:100C8000BA4272D1DFF884C14D68A5EB0C06654508
:100C90002BD00DDC032D34D005DC35B3012D19D05C
:100CA000022D2FD11BE0112D16D0122D2AD119E0C3
:100CB000B6F5881F19D006DCB6F5803F15D0B6F51D
:100CC000801F1FD111E0B6F5001F0ED0B6F5041F2E
:100CD00018D10AE0CB6815E0CB681B1D12E0CB6889
:100CE00008330FE0CB680C330CE08B682BB1012B81
:100CF0004FF0080303D0476104E0042302E00761DA
:100D000000E00023FF2A01D8064601E000F10406B6
:100D10004FEA840501D9A5F12005376808FA05FCDA
:100D200027EA0C0703FA05F547EA050737604D681F
:100D3000ED0060D5364DAE6946F00106AE61AD6995
:100D400024F0030605F001050095324D7719BE68C1
:100D5000A5072D0F08FA05FC26EA0C06DFF8B8C037
:100D6000604503D14FF0000C17E044E0DFF8ACC061
:100D7000604502D14FF0010C0FE0DFF8A4C06045E0
:100D800002D14FF0020C08E0DFF898C0604502D1B4
:100D90004FF0030C01E04FF0040C0CFA05FC4CEA98
:100DA000060CC7F808C04D68D9F80060ED024D4642
:100DB00001D5164300E096432E604D68DAF80060D6
:100DC000AD02554601D5164300E096432E604D68AE
:100DD000DBF80060AD035D4601D5164300E09643A5
:100DE0002E604D68DEF80060ED03754601D51643B0
:100DF00000E096432E60641C0A6832FA04F57FF422
:100E00003CAFBDE8F88F000008040140000011105D
:100E1000001002400000014000080140000C0140A9
:100E20000010014000140140014880687047000034
:100E30000C000020024881680278114481607047EC
:100E40000C000020074810B5016841F01001016056
:100E5000032000F075F80F2000F006F800F024F8E9
:100E6000002010BD0020024070B50D4D04464FF427
:100E70007A712878B1FBF0F00A490968B1FBF0F00B
:100E800000F0DEFA48B9102C07D200222146501E8D
:100E900000F036F800206C6070BD012070BD0000CD
:100EA0000C000020180000200C4808B5816941F0B2
:100EB00001018161816901F001010091C16941F085
:100EC0008051C161C069064900F0805000904868B7
:100ED00020F0E06040F00070486008BD0010024063
:100EE00000000140002809DB00F01F0201219140B1
:100EF0004009800000F1E020C0F8001170470000B8
:100F0000F0B40E4B1B68C3F30223C3F10704042C97
:100F100000D904241D1D072D01D2002300E0DB1E93
:100F2000012606FA04F56D1E0D409D409E40761E7A
:100F3000164045EA0601F0BC00F0A9BD0CED00E04A
:100F4000064A00F0070110684FF6FF03184040EA18
:100F50000120034908431060704700000CED00E0D9
:100F60000000FA052DE9F0470D46040067D0DFF8D0
:100F70001881D8F8000000F00700A8420CD2D8F879
:100F8000001021F007012943C8F80010D8F800002C
:100F900000F00700A84252D120683C4E810712D5CC
:100FA000400703D5706840F4E06070602078000767
:100FB00003D5706840F4605070607068A16820F0DC
:100FC000F000084370602078C00727D060680128CF
:100FD00010D03168022810D0890700292FDA7168F3
:100FE00021F0030101437160FFF71EFF074641F244
:100FF00088390CE031688903EFE78901EDE7FFF7F5
:1010000013FFC11B494502D90320BDE8F087706872
:10101000616800F00C00B0EB810FF0D1D8F800103F
:10102000404601F00701A9420BD9016821F00701F0
:1010300029430160006800F00700A84201D00120A8
:10104000E3E72078400705D57068E16820F4E060A8
:10105000084370602078000706D57068216920F485
:10106000605040EAC100706000F038F87168084ACA
:10107000C1F30311515CC840064908600648006886
:10108000FFF7F2FE0020C0E70020024000100240FF
:101090001C25000818000020100000200448054905
:1010A00000684968044AC1F30221515CC840704796
:1010B00018000020001002402C25000804480549B3
:1010C00000684968044AC1F3C221515CC8407047B6
:1010D00018000020001002402C2500080E4B596813
:1010E0000E4801F00C02042A11D0082A0FD10C4836
:1010F000C1F38342C903805C0AD55968084AC1F329
:101100004041921E515C054A5043B0FBF1F07047DC
:1011100004494843704700000010024000127A0062
:101120000C25000800093D002DE9F84F04006FD0A0
:101130002078BE4DC00747D06868C0F38100012801
:1011400007D06868C0F38100022809D16868C0032D
:1011500006D52868800337D560680028E7D033E0DB
:101160006068B0F5803F0BD010B1B0F5A02F11D062
:10117000286820F480302860286820F4802002E06D
:10118000286840F480302860606888B1FFF74CFE22
:10119000064609E0286840F480202860F0E7FFF761
:1011A00043FE801B642873D828688003F7D50BE0C2
:1011B000FFF73AFE064604E0FFF736FE801B642880
:1011C000F1D828688003F7D42078DFF8648280079C
:1011D0004FF0010A4FF0000939D5686810F00C0F84
:1011E00007D06868C0F38100022809D16868C0038D
:1011F00006D42868800714D52069012808D110E09A
:101200002069B0B1C8F800A0FFF70EFE064605E061
:1012100007E1FFF709FE801B0228C4D82868800771
:10122000F7D52868616920F0F80040EAC10028601D
:101230000DE0C8F80090FFF7F7FD064604E0FFF761
:10124000F3FD801B022823D828688007F7D4207874
:1012500000072CD57748A169D9B1C0F800A0FFF7E5
:10126000E3FD064604E0FFF7DFFD801B02280FD8F0
:10127000686A8007F7D570484FF4FA510068B0FBF0
:10128000F1F0009000BF0098411E0091FAD20EE0EC
:101290007CE0C0F80090FFF7C7FD064604E0FFF7CA
:1012A000C3FD801B022871D8686A8007F7D42078B4
:1012B00040075BD5E8690027C00008D4E86940F022
:1012C0008050E861E869012700F0805000905B4899
:1012D0000168C90511D40168834641F48071016039
:1012E000FFF7A2FD064604E0FFF79EFD801B642881
:1012F0004CD8DBF80000C005F6D5E06801280AD01C
:1013000008B1052813D0286A20F001002862286A55
:1013100020F0040002E0286A40F001002862E06842
:1013200041F2883B88B1FFF77FFD064609E0286A55
:1013300040F004002862EEE7FFF776FD811B594577
:101340005BD8286A8007F7D50BE0FFF76DFD0646EE
:1013500004E0FFF769FD811B59454ED8286A8007D4
:10136000F7D41FB1E86920F08050E861E069A8B3C4
:101370006968C1F38101022946D00228484606D097
:10138000C8F86000FFF750FD044639E035E04746F5
:10139000C8F86000FFF748FD064604E0FFF744FD8B
:1013A000801B022829D828688001F7D4206AB0F56C
:1013B000803F05D16868A16820F400300843686068
:1013C000D4E908010843696821F47411084368608E
:1013D000C7F860A0FFF728FD044605E023E0FFF70B
:1013E00023FD001B022808D828688001F7D51AE0E1
:1013F000FFF71AFD001B022802D90320BDE8F88F71
:1014000028688001F4D40EE00128F7D06868226AC9
:1014100000F48031914204D1616A00F47010884276
:1014200001D00120EAE70020E8E7000000100240B8
:101430000000424280044242180000200070004038
:1014400010B5401EB0F1807F01D3012010BD4FF0D8
:10145000E02460610F21601700F019FB0020A061FB
:1014600007202061002010BD704770B5040004D033
:1014700094F84100002510B106E0012070BD84F809
:101480004050204600F024F8242084F841002068D1
:10149000C16821F40051C160204600F095FA20682F
:1014A000016921F4904101612068416921F02A011C
:1014B00041612068C16841F40051C1606564202029
:1014C00084F8410084F842006563002070BD00008C
:1014D00070B586B0002406460094019402940394EB
:1014E00000681F49884238D11E48816941F4804113
:1014F0008161816901F480410491816941F00401B5
:1015000081618069184D00F0040004904FF4007070
:101510000090022001900320039069462846FFF7BF
:101520009DFB2815CDE90004694628460294FFF783
:1015300095FB0F4D0D4828601020C5E9010480205F
:10154000C5E903046C61AC612846EC61FFF70EFB52
:1015500008B1FEF7D9FEB5636E6206B070BD00003B
:1015600000380140001002400008014044000240E1
:101570009400002037B5044690F84100202801D09F
:1015800002203EBD019951B34AB32162A284E28494
:1015900000206064212384F84130A56B114BAB62BD
:1015A000A56B114BEB62A56B104B2B63A36B5863C0
:1015B00020681346A56B021D2846FFF705FB21682E
:1015C0006FF0400008602068143050E8001F41F0C0
:1015D000800140E80012002AF5D100203EBD012024
:1015E0003EBD00001119000853190008C718000873
:1015F00070477047FEE700002DE9F041074610A054
:101600009AB000230E461C466D46D0F8008007E0D5
:1016100057F82400FEF77AFE1B1D641CDBB2E4B20F
:10162000B44205EB0301F3D3C1F800801B1DDAB20D
:1016300069460448FFF79EFF1AB0BDE8F08100003C
:101640000000807F4C0000200F4810B50D4901605C
:101650000621416000214FF480328160C0E903120D
:10166000520142610176417681760122C27601778C
:101670004177FFF7A0F8002803D0BDE81040FEF73F
:1016800043BE10BD0064004024000020094808B596
:10169000416941F0010141614069002200F001000F
:1016A000009011460E20FFF72BFCBDE808400E20ED
:1016B000FFF718BC00100240094808B5816941F0E5
:1016C00020018161816901F020010091816941F06F
:1016D00004018161806900F00400009008BD0000F1
:1016E000001002400C4810B50A4901604FF4E13186
:1016F0004160002181600C22C160C0E90412816157
:10170000C161FFF7B2FE002803D0BDE81040FEF72C
:10171000FBBD10BD003801404C000020FEE7FEE795
:101720002DE9F04104460E46D4E9030100F008FE1D
:101730006061E76905467EB3A6692846314600F038
:10174000FFFD804620620121304600F0A0FE2946C0
:1017500000F0EBFD394600F039FBA16800F0E8FC31
:1017600007462946606800F0E3FC054640462168CC
:1017700000F0DEFC294600F029FB394600F026FB8C
:101780000146606A00F022FBE6616062A16A00F037
:101790009BFD31D2A06A35E0FFE72946384600F0CC
:1017A00015FBE061216B00F08FFD01D2206B05E09D
:1017B000616BE06900F088FC01D2606BE061D4E904
:1017C0000551284600F0BCFD2062A2680146104683
:1017D00000F0AEFC0746E169606800F0A9FC06462F
:1017E0002946206800F0A4FC314600F0EFFA3946A3
:1017F00000F0ECFA6062C9E7E16A606A00F064FC3C
:1018000001D2E06A60626069A061606ABDE8F0814F
:1018100080E80E000021C160016141618161C16108
:1018200001624162064981620649C1624FF07E5100
:10183000016305494163012180F8381070470000B9
:101840000000A0400000A0C0000080BF0161704700
:10185000C0E90C127047C0E90A127047C1607047B6
:1018600070477047FFF7E6BA30B58FB02821684659
:10187000FEF7AAFC14210AA8FEF7A6FC0120010429
:1018800000248DE8130004904FF4E010CDE9081017
:10189000022507956846FFF747FC08B172B6FEE7D8
:1018A0000F20CDE90A054FF48060CDE90C400221FC
:1018B0000AA80E94FFF756FB002801D072B6FEE787
:1018C0000FB030BD704770B5446A2068406994F825
:1018D0004110C0F3C0100025212904D118B1E584BE
:1018E000204600F062F82068406994F84210C0F386
:1018F0008010222904D118B1E585204600F02EF889
:10190000606C40F0100060642046FFF7ADFD70BDD4
:1019100010B50146406A09680968890616D4002195
:10192000C1840168143151E8002F22F0800241E89F
:101930000023002BF5D101680C3151E8002F42F053
:10194000400241E80023002BF5D110BDFFF750FE07
:1019500010BD10B5406AFFF74CFE10BD01680C3198
:1019600051E8002F22F4907241E80023002BF5D1BA
:101970000168143151E8002F22F0010241E80023F0
:10198000002BF5D1016B012909D101680C3151E817
:10199000002F22F0100241E80023002BF5D1202176
:1019A00080F8421000210163704701680C3151E852
:1019B000002F22F0C00241E80023002BF5D12021A6
:1019C00080F841107047000070B504460068016956
:1019D000E26821F4405111430161A168206901438B
:1019E000606901432068C26841F20C639A430A436C
:1019F000C26020684169A26921F4407111434161CC
:101A00001E492068884202D1FFF758FB01E0FFF72A
:101A100045FB00EBC00101EB00116068642280000F
:101A2000B1FBF0F3B3FBF2F36FF018067343B1FBB5
:101A3000F0F5B1FBF0F605EB8305322303EB05155A
:101A4000B5FBF2F5B6FBF2F605F0F00505EB061571
:101A5000B1FBF0F6B1FBF0F0B0FBF2F06FF0180163
:101A6000484306EB800003EB0010B0FBF2F0216866
:101A700000F00F002844886070BD0000003801406D
:101A80000148FEF79ABD000024000020FEE7090788
:101A9000090E002804DB00F1E02080F800147047F4
:101AA00000F00F0000F1E02080F8141D70470000E6
:101AB00000B587B00091002101910291CDE9031397
:101AC000044B6946FEF72AFC002800D0012007B02D
:101AD00000BD00002000002070B5044608780D46C7
:101AE00000F00F006060087810230009A060B1F8D2
:101AF000010040BAE060C9782A79090141EA12116F
:101B000021612A79697902F00F0241EA02216161BB
:101B1000D4F8B02082F0004100F03AF92062D4F805
:101B2000B4200C2382F00041206900F031F960629A
:101B3000D4F8B8200C2382F00041606900F028F945
:101B4000A062A87900F0ACFA6063E87900F0A8FA26
:101B5000A06370BD10B54FF488710E48FEF734FBDA
:101B60000C480121112220F8021B20F83A2B4FF0DB
:101B70007E52017700210170C0E90112C16001614C
:101B8000C0E9051204494167044981670449C167F6
:101B900010BD0000D8000020000048410000F041C6
:101BA000000020412DE9F04107461E460C46104634
:101BB00000F0C6FB05460120B040401E00F058FA78
:101BC00006462146384600F0BBFB314600F0B0FA2D
:101BD000294600F06FF9BDE8F04100F02DBA000091
:101BE00092B0FFF72FF9FFF73FFEFFF765FDFFF714
:101BF0004DFDFFF729FDFFF775FD2948FEF748FB6E
:101C00002748FEF7D4FEFFF7A5FF00231A46194622
:101C100003A8FFF7FDFD234C234D2246294603A8C8
:101C2000FFF719FE2246294603A8FFF711FE1F4EB3
:101C3000DFF87C80DFF87C9000274FF07E55012193
:101C4000174800F095F80520FEF7F6FF306803907E
:101C500070680490B06805904446294603A8C8F807
:101C60004450FFF7FBFD646A03A82146FFF7EEFD31
:101C7000002103A8FFF754FD0097CDE90170002370
:101C80001A460121064800F017F80520FEF7D4FF98
:101C9000C9E9005402210748FFF7AEFCCFE7000076
:101CA000240000200000A0C00000A0400000002090
:101CB000D8000020E80100202DE9FC5F1646DDE990
:101CC0000D949B46824688461023214A214930467E
:101CD0000C9DFFF767FF07460C231F4A1F49584614
:101CE000FFF760FF06460C231D4A1E492046FFF7FA
:101CF00059FF04460C231C4A00212846FFF752FFD7
:101D000005460C23194A00214846FFF74BFF390AC4
:101D10008DF800108DF8017031098DF80210310135
:101D200041EA15218DF803108DF8045001098DF852
:101D30000510010141EA14208DF806008DF80740D6
:101D400008236A4641465046FFF7B2FEBDE8FC9FB5
:101D500000004841000048C10000F0410000F0C10F
:101D600000002041000020C10000FA430000A04014
:101D70001CB505A2D2E90032CDE9003208236A463B
:101D8000FFF796FE1CBD0000FFFFFFFFFFFFFFFCFB
:101D90002DE9F04107461E460C46104600F0D0FAE9
:101DA00005460120B040401E00F062F90646384664
:101DB00000F05EF9294600F0BBF9314600F07AF8F0
:101DC0002146BDE8F04100F001B8000090EA010FA3
:101DD00048BF81F0004100F1BA82421A3CBF801A2C
:101DE00089184FEAD0524FF07F4C1CEA410FA2EB0A
:101DF000D15318BF9CEA026F00F03B804FF0004CBB
:101E00004CEA00204CEA012121FA03FC10EB0C0CF7
:101E10001ED202F1FF325FEA1C2040EBC25038BFF5
:101E200070471CF07F0F4FEA400C18BFBCF17F4F8A
:101E300038BF7047C3F12003994008BF20F001006C
:101E4000BCF17F4F38BF7047A0F1C04000F037BAF7
:101E50004FEA3C00000A40EBC25028BF1CF0FF0FC5
:101E60004FEA400CE6D018BFBCF17F4F38BF704737
:101E7000EAE79CEA026F05D010EA5C0F08BF00F0A9
:101E80000040704710B500F0D4F900BF64FBBE3EBF
:101E9000014800F0CABA00BF0000C07F401058BF20
:101EA000C0F14040491058BFC1F140418142EFF3B9
:101EB000008070474FF47F0C1CEAD0121EBF1CEA52
:101EC000D11392EA0C0F93EA0C0F00F0858090EA90
:101ED000010F48BF42F4807240F4000C41F400004E
:101EE0002CF07F4120F07F4000B58142A2EB03023D
:101EF0000FF2081CACEB504EC0F100009EF800E061
:101F00004FEA4E0E00FB0EFC38BF49004FEA2C1C76
:101F100002F5FA020CFB0EF34FEACE1E4FEA112C2B
:101F20004FEAC1210EEB635E42EB22420EFB0CFC3A
:101F30004FEA1C5300FB03114FEA112C4FEA013109
:101F40000EFB0CFC4FEADC4C00FB0C11C14228BF1D
:101F500009184CEB03335DF804EB10EB410143EB44
:101F6000C250B2F57C0F38BF704729D512F0F00F80
:101F70001CBF00F1C04000F0004070470081828328
:101F80008485868788898B8C8D8E8F919293959688
:101F900097999A9C9D9FA0A2A3A5A7A8AAACAEB012
:101FA000B2B3B5B7B9BCBEC0C2C5C7C9CCCED1D417
:101FB000D7D9DCDFE2E6E9ECF0F3F7FAFE00000047
:101FC0004FEA400C0CF1807CBCF17E4F28BF70477B
:101FD000B0F1C04000F073B990EA010F0CEAD113E0
:101FE00048BF42F48072624538BF634507D213F49C
:101FF0007F0F16D080EA010000F00040704710B556
:1020000000F017F9097EFC3E00F005B880EA0100F7
:1020100000F00040704780EA010000F0004000F04E
:102020004EB912F47F0F04BF0248704780EA0100E6
:1020300000F045B90000C07F41000B0ED3F19E02B5
:1020400008D950F400034FEA032323FA02F048BFF3
:102050004042704710B500F0ECF800BF4992248070
:10206000002070476FF0004282EA200070470000B5
:1020700010F0004148BF4042B0FA80F310FA03F27A
:10208000C3F19D030BD051EAC35101EB122053065B
:1020900038BF704700F1010008BF20F00100704711
:1020A000B0FA80F310FA03F2C3F19D030AD0D90508
:1020B00001EB1220530638BF704700F1010008BF42
:1020C00020F001007047000050EA010C00F113807D
:1020D0001CF5000F58BFBCF5000F01D488427047B3
:1020E00007D710F5000F58BF11F5000F15D488421F
:1020F0007047894270471CF5000F04D5BCF5000FEE
:10210000F7D5814270474FF0807C1CEB400F38BF01
:102110001CEB410F01D28142704710B500F089F8E5
:10212000922449004FF000504FF08051FFF7B6BEA7
:102130004FF47F0C1CEAD0121EBF1CEAD11392EAA6
:102140000C0F93EA0C0F00F0478090EA010F48BF94
:1021500042F480724FF0004C4CEA00204CEA01211E
:1021600002EB0302A0FB0113A2F50002002918BF35
:1021700043F001035B0028BF4FEA330342EB2242E6
:102180005FEA132C4CEBC2502EBFBCEB436FB2F591
:102190007C0F70474FEA036CBCF1004F08BF20F082
:1021A0000100B2F57C0F38BF70470BD582F0FF02FB
:1021B00012F5803FC8BF704700F1C040D8BF00F0A3
:1021C0000040704700F5000C5FEA4C0C48BF7047B8
:1021D000B0F1C04000F073B890EA010F0CEAD113DF
:1021E00048BF42F48072624538BF634504D280EA3A
:1021F000010000F00040704710B500F01AF800BF71
:102200008900013E00F007B800F009B85FEA410C10
:102210005FEA1C6C08D080EA010000F050B85FEA69
:10222000400C5FEA1C6CF6D14FF00040A0F5800036
:1022300070470EF1020E2EF0030E5EF8044B24429E
:1022400004D44FEA4102B2F17F4F11D84FEA400364
:10225000B3F17F4F0CD80ED14FEAD07CB2F17F4F53
:102260000CEB4C0C0CF1020C08BF4CEBD17C04E0E5
:102270004FF0080C01E04FEAD17C0CEB4C0324FA40
:1022800003F404F00704B4F1040C06D20EEB840C42
:10229000BDE810404CF0010C6047DFE80CF0070887
:1022A00002024FF00040A0F5800010BD0846420039
:1022B00018BFD2F1807288BF00F0004010BDFF212E
:1022C00041EAD050C005704751EA000C00F113807C
:1022D0001CF5000F58BFBCF5000F01D481427047B8
:1022E00007D711F5000F58BF10F5000F15D4814224
:1022F0007047894270471CF5000F04D5BCF5000FEC
:10230000F7D5884270474FF0807C1CEB410F38BFF7
:102310001CEB400F01D28842704780EA010081EA3D
:10232000000180EA0100FFF7F8BE80F0004090EA6B
:10233000010F7FF552AD81F0004100F008B80000B8
:1023400090EA010F48BF81F000413FF546AD421AC7
:1023500004D882F00042A0EB020011444FEAD052B0
:102360004FF07F4C1CEA410FA2EBD15318BF9CEAFF
:10237000026F4AD04FF0004C4CEA00204CEA012199
:1023800021FA03FCB0EB0C0C0FD412F0FE0F36D088
:102390005FEA4C001DD5001240EBC25038BF7047B9
:1023A0001CF03F0F18BF70470BE0A2F101025FEA7B
:1023B0001C2040EBC25038BF70471CF07F0F18BF85
:1023C0007047C3F12003994014BF401E20F0010064
:1023D000704780084FEA122308BF7047B0FA80FCAC
:1023E000A2EB0C02CCF1280C60FA0CF093EA122F4D
:1023F00004BF00EBC25070474FEAC3707047130A26
:102400005FEADC1008BF7047F6E79CEA026F04D071
:1024100010EA5C0F08BF0020704710B5FFF709FFF6
:1024200040DFF63E81F0004070470CF00F03092BAF
:1024300008BF082000F051800A2B0BD0082B18BFD2
:10244000704708BF1CF0400F0AD04FF000004FF05B
:10245000000170471CF0400F18BF4FF0004070475C
:102460001CF0100F08D020F0704300F07F4242EAC9
:10247000D3014FEA4370704700F0604021F07F4283
:1024800042EA000201F07F4040EA727070474FF06C
:10249000FF0212EAD0521CBF92F0FF038B42C2BF70
:1024A000D14200EBC1507047002A0AD0002B0BD05C
:1024B000002900F00040A4BF40F0FE4040F40000BE
:1024C000704700F00040704743024FF00B0C18BFFC
:1024D0004CF0806C7FF4DCAC70471CF4801F11D092
:1024E0001CF4E02F03D06FEACC31490070474FF065
:1024F0004050EFF3008222F0704242EA000282F381
:10250000008870474FF00000704701020203040585
:10251000060708090A0B0C0D0E0F10100000000032
:102520000000000001020304060708090000000083
:1025300001020304542500080000002024000000CC
:102540002801000878250008240000204C0800001D
:1025500044010008CDCCCC3D00000000000000008C
:1025600001000000100000000000000000127A00CE
:08257000000000000000000063
:04000005080000ED02
:00000001FF
