:020000040800F2
:10000000780900246D0300088B420008E9400008CD
:1000100089420008C7050008B94E0008000000002A
:10002000000000000000000000000000154600086D
:100030000D0A000800000000D14300081746000820
:100040008703000887030008870300088703000868
:100050008703000887030008870300088703000858
:10006000870300088703000887030008C905000804
:100070008703000887030008870300088703000838
:10008000870300088703000887030008150A000893
:100090008703000887030008870300088703000818
:1000A0008703000887030008870300088703000808
:1000B00087030008870300088703000887030008F8
:1000C00087030008870300088703000887030008E8
:1000D00087030008870300088703000887030008D8
:1000E000870300088703000800000000870300085A
:1000F00087030008870300088703000887030008B8
:1001000087030008870300088703000887030008A7
:100110008703000887030008870300088703000897
:100120008703000887030008870300088703000887
:100130008703000887030008870300088703000877
:1001400000000000000000000000000000000000AF
:100150008703000887030008870300088703000857
:100160008703000887030008870300088703000847
:1001700087030008870300088703000800000000C9
:100180008703000887030008870300088703000827
:100190008703000887030008870300088703000817
:1001A0008703000887030008870300080000000099
:1001B00087030008870300088703000887030008F7
:1001C000870300088703000800000000000000000B
:1001D000000000000000000087030008000000008D
:1001E000000000000000000000000000000000000F
:1001F00000000000000000008703000887030008DB
:100200008703000887030008000000008703000838
:100210008703000887030008870300088703000896
:1002200087030008000000008703000800000000AA
:100230008703000887030008000000008703000808
:100240008703000887030008870300088703000866
:100250008703000887030008870300088703000856
:100260008703000887030008870300088703000846
:1002700087030008870300088703000800000000C8
:100280008703000887030008870300088703000826
:10029000000000008703000887030008000000003A
:1002A0000000000087030008870300088703000898
:1002B00087030008870300088703000887030008F6
:1002C00087030008870300088703000800F002F88E
:1002D00000F03CF80AA090E8000C82448344AAF1A4
:1002E0000107DA4501D100F031F8AFF2090EBAE8A2
:1002F0000F0013F0010F18BFFB1A43F0010318475A
:100300004051000060510000103A24BF78C878C105
:10031000FAD8520724BF30C830C144BF04680C600B
:10032000704700000023002400250026103A28BF53
:1003300078C1FBD8520728BF30C148BF0B60704757
:100340001FB505F029F81FBD10B510BD00F001F96B
:100350001146FFF7F5FF04F0CDFE00F01FF903B4DE
:10036000FFF7F2FF03BC00F027F9000009488047BF
:1003700009480047FEE7FEE7FEE7FEE7FEE7FEE787
:10038000FEE7FEE7FEE7FEE704480549054A064B9F
:1003900070470000B5460008CD020008780300242D
:1003A00078090024780500247805002453EA020C1B
:1003B00000F069802DE9F04B4FF00006002B1FBFC5
:1003C000B3FA83F503FA05F424FA05F65E4012BF8A
:1003D0001643B2FA82F502FA05F4C5F120051EBFF4
:1003E00022FA05FC44EA0C04203556EA044C4FEA94
:1003F000144418BF641C4FF000084FF000099042ED
:1004000071EB030C39D3002919BFB1FA81F701FA56
:1004100007F6B0FA80F700FA07F6C7F120071EBF0B
:1004200020FA07FC46EA0C062037B6FBF4FCA7EBE3
:100430000507103F07F01F0BCBF120060CFA0BFB52
:100440002CFA06F644BFB3460026202FA4BF5E4612
:100450004FF0000B5BEA060C08BF4FF0010B19EBE5
:100460000B09ABFB027C48EB0608C01B06FB02CC69
:100470000BFB03CC71EB0C01C1E70B460246414676
:100480004846BDE8F08B13B54FF000004FF0000177
:10049000AFF30080BDE81C40704710B5203AC0F0B3
:1004A0000B80B1E81850203AA0E81850B1E8185075
:1004B000A0E81850BFF4F5AF5FEA027C24BFB1E8B2
:1004C0001850A0E8185044BF18C918C0BDE8104023
:1004D0005FEA827C24BF51F8043B40F8043B08BF2C
:1004E0007047D20728BF31F8023B48BF11F8012BF3
:1004F00028BF20F8023B48BF00F8012B70474FF09F
:10050000000200B5134694469646203922BFA0E863
:100510000C50A0E80C50B1F12001BFF4F7AF09076F
:1005200028BFA0E80C5048BF0CC05DF804EB890060
:1005300028BF40F8042B08BF704748BF20F8022BA3
:1005400011F0804F18BF00F8012B704770477047BB
:100550007047754600F02CF8AE46050069465346D4
:1005600020F00700854618B020B5FFF70DFFBDE865
:1005700020404FF000064FF000074FF000084FF00A
:10058000000B21F00701AC46ACE8C009ACE8C0099B
:10059000ACE8C009ACE8C0098D46704710B5044608
:1005A000AFF300802046BDE81040FFF7D8BE000042
:1005B000004870471403002401491820ABBEFEE731
:1005C000260002007047FEE7014800F04FBB000024
:1005D00064010024294A016891423AD0274A18321E
:1005E000914236D0254A3032914232D0234A4832A5
:1005F00091422ED0214A603291422AD01F4A78324D
:10060000914226D01D4A9032914222D01B4AA832F4
:1006100091421ED01A4A91421BD0194A1832914277
:1006200017D0174A3032914213D0154A48329142BE
:100630000FD0134A603291420BD0114A7832914266
:1006400007D00F4A9032914203D00D4AA83291420E
:1006500011D1CAB21823103AB2FBF3F26FF30901B9
:10066000032A02F00703074AD25CC26500D9091DBC
:1006700081650846704721F0FF01F9E7100002404C
:1006800010040240A253000830B5224A0123016839
:100690009142CAB21BD01F4C1434A14217D01D4C3A
:1006A0002834A14213D01B4C3C34A1420FD0194C2A
:1006B0005034A1420BD0174C6434A14207D0154CE2
:1006C0007834A14203D0134C8C34A1420CD11421B4
:1006D000114C083AB2FBF1F10F4A803201F01F05CC
:1006E00004EB8101AB4010E00C4D1824103A0D448E
:1006F000B2FBF4F1A82D00D80831094A01F01F041B
:1007000002EB8101064AA3408032603080E80E008F
:1007100030BD00000854025800580258F0FBFDBFDD
:100720000008024010B50279531E072B2DD8174C34
:100730000168A1421BD0154C1434A14217D0134CB0
:100740002834A14213D0114C3C34A1420FD00F4C9D
:100750005034A1420BD00D4C6434A14207D00B4C55
:100760007834A14203D0094C8C34A14203D108490A
:10077000074C443102E00749064C443104EB820245
:10078000C0E91B2101219940416710BD085402585E
:10079000FC580258FC08024010B583694FF0C07441
:1007A000826A0146002053B1B3F5005F15D072B1E3
:1007B000012A0CD0022A0AD0032A09D104E01AB176
:1007C000012A06D0022A03D1C96AC90100D5012035
:1007D00010BDC96AA142FAD010BD002AF7D0012A83
:1007E000F2D0022AF3D0032AF3D010BD2DE9F04F46
:1007F000804E804FDFF8FC911836DFF8F8A14837BB
:100800000468856D0AF1300ADFF8ECB14C45DFF879
:10081000ECC1DFF8ECE16DD0B4426BD0544569D047
:10082000BC4267D0DFF8D081A8F11808444561D0F8
:100830005C455FD064455DD074455BD0DFF8C48112
:10084000444557D0DFF8BC8108F11808444551D021
:10085000DFF8B08108F1300844454BD0DFF8A481BF
:1008600008F14808444545D0DFF8988108F1600850
:1008700044453FD0DFF88C8108F17808444539D0F1
:10088000DFF8808108F19008444533D0DFF87481A7
:1008900008F1A80844452DD0DFF86C81444529D0E3
:1008A000DFF8648108F11408444523D0DFF858814B
:1008B00008F1280844451DD0DFF84C8108F13C08B8
:1008C000444517D0DFF8408108F15008444511D065
:1008D000DFF8348108F1640844450BD0DFF8288143
:1008E00008F17808444505D0DFF81C8108F18C0830
:1008F000444509D1D0E91948C4F80480C46E1CB13C
:10090000D0E91C48C4F8048004684C452ED0B44299
:100910002CD054452AD0BC4228D0374E183EB44281
:1009200024D05C4522D0644520D074451ED0354E7D
:10093000B4421BD0334E1836B44217D0314E303645
:10094000B44213D02F4E4836B4420FD02D4E6036ED
:10095000B4420BD02B4E7836B44207D0294E903695
:10096000B44203D0274EA836B44215D190F85C604B
:100970003F2406F01F06B440AC600468256825F4E7
:10098000802525602EE09A600068C160BDE8F08F88
:1009900099600068C260F9E71B4EB4421BD01A4E42
:1009A0001436B44217D0184E2836B44213D0164E1F
:1009B0003C36B4420FD0144E5036B4420BD0124ED7
:1009C0006436B44207D0104E7836B44203D00E4E8F
:1009D0008C36B442DAD190F85C60012406F01F0630
:1009E000B4406C60046863608368402B0368CFD1B7
:1009F000C9E700001000024088000240A000024049
:100A0000B80002401004024008540258704772B601
:100A1000FEE70000014801F0A9B900003000002401
:100A2000F0B503684FF6FC716D4C426BD3F88450FF
:100A30008D4345EA8205C3F88450036853F8845F08
:100A4000068F25F47F0545EA06451D60836B654DDD
:100A50009F180268D2F888308B4343EA8703C2F8B4
:100A60008830026852F8883F868F23F4FE0343EAF9
:100A700006431360066856F8A03FC26B8B4307EB32
:100A8000420243EA82033360076857F8A03FB0F898
:100A9000406023F4FE0343EA06433B60D0E910368E
:100AA00003FB06220368D3F8B0608E4346EA820651
:100AB000C3F8B0600368B0F84860D3F8B07027F4AA
:100AC000FE0747EA0646C3F8B060D0E9126703683C
:100AD00006FB0722D3F8AC608E4346EA8206C3F8D1
:100AE000AC60D0E91467036806FB0722D3F8F06016
:100AF0008E4346EA8206C3F8F0600368B0F8586097
:100B0000D3F8F07027F47C1747EA0646C3F8F06084
:100B10000368876D53F8C06F02EB47028E4346EAC5
:100B2000820119600168B0F85C20D1F8C03023F46C
:100B30007C1343EA0242C1F8C020016890F86020AB
:100B4000D1F8C03023F07C5343EA0262C1F8C020E0
:100B5000416B04EB8101C166826B01EB820202678B
:100B6000C36B02EBC3024267D0E91034634302EB6C
:100B700083028267D0E91234634302EB8302C267C7
:100B8000D0E91434634302EB8302C0F88020836D04
:100B900002EBC303C0F88430C46D826E544303EB90
:100BA0008403C0F88830046E544303EB8402C0F819
:100BB0009020AA420AD9D0F89C20032142F02002BA
:100BC000C0F89C2080F898100120F0BD002200E0C1
:100BD00004C1D0F890308B42FAD80020F0BD00005C
:100BE00000AC0040FCD30040F0B58E680C69D1E940
:100BF000005744EA0604DFB145F080452C43866E79
:100C0000D1E906C54F695E4391F8203045EA0C05ED
:100C1000B1F80CC0D0F884E0002047EA03630C4F21
:100C20001D430EEB860345EA0C45E3E802450AE066
:100C300044EA8544E3E71418155C001DD4F801402C
:100C400045EA042410C3CC683C5D8442F3D8F0BD6F
:100C5000AC53000810EE101A10B501700A0A427069
:100C60000B0C83700C0EC47010BD00002DE9FC5FEE
:100C70000446F74E0020DFF8D88300904FF4165258
:100C8000F44808F11808A56DDFF8C493DFF8C0A395
:100C9000016809F1300920680AF1480AB1FBF2F154
:100CA000B04201912F68D5F800C0DFF8ACB335D061
:100CB0004146884232D0484530D050452ED0584524
:100CC0002CD0E5491831884228D0E3493031884298
:100CD00024D0E1494831884220D0E04988421DD0E3
:100CE000DE491831884219D0DC493031884215D0AC
:100CF000DA494831884211D0DFF860E30EF1600E26
:100D000070450BD0D54A7832904207D0D34B903300
:100D1000984203D0D149A83188427DD194F85C2013
:100D2000082102F01F0201FA02F23A424AD0B04210
:100D300032D0404530D048452ED050452CD0584573
:100D40002AD0C54A1832904226D0C34A3032904247
:100D500022D0C14A483290421ED0C04A90421BD095
:100D6000BE4A1832904217D0BC4A3032904213D05B
:100D7000BA4A483290420FD0B84A603290420BD003
:100D8000B64A7832904207D0B44A9032904203D0AB
:100D9000B24AA832904203D1026802F0040202E093
:100DA000026802F008026AB1026822F004020260DE
:100DB00094F85C0000F01F008140A960606D40F075
:100DC0000100606594F85C00012100F01F00814083
:100DD000394240D02068B04234D0404532D04845F6
:100DE00030D050452ED058452CD09B4A18329042D6
:100DF00028D0994A3032904224D0974A48329042C3
:100E000020D0964A90421DD0944A1832904219D070
:100E1000924A3032904200E0AFE113D08F4A48321C
:100E200090420FD08D4A603290420BD08B4A78327C
:100E3000904207D0894A9032904203D0874AA83224
:100E400090427DD1406910F0800F04D0A960606DA0
:100E500040F00200606594F85C00042100F01F007F
:100E6000814039423ED02068B04232D0404530D037
:100E700048452ED050452CD058452AD0764A1832B5
:100E8000904226D0744A3032904222D0724A483280
:100E900090421ED0714A90421BD0704A1832904244
:100EA00017D06E4A3032904213D06C4A483290428A
:100EB0000FD06A4A603290420BD0684A7832904232
:100EC00007D0664A9032904203D0644AA8329042DA
:100ED0004ED1006810F0020F04D0A960606D40F0A0
:100EE0000400606594F85C00102100F01F00814050
:100EF000394258D02068B04234D0404532D04845BD
:100F000030D050452ED058452CD0534A18329042FC
:100F100028D0514A3032904224D04F4A4832904231
:100F200020D04E4A90421DD04C4A1832904219D0DF
:100F30004A4A3032904215D0484A4832904200E046
:100F400014E00FD0454A603290420BD0434A7832C9
:100F5000904207D0414A9032904203D03F4AA83293
:100F6000904207D1006800F0080006E0006872E7D0
:100F70000068B7E7006800F00400A0B1A96020682D
:100F80000168490304D50068000308D5A16C07E097
:100F90000168C90503D4016821F008010160216CD2
:100FA00009B12046884794F85C00202100F01F001A
:100FB0008140394279D02068B04232D0404530D0AB
:100FC00048452ED050452CD058452AD0224A1832B8
:100FD000904226D0204A3032904222D01E4A4832D7
:100FE00090421ED01D4A90421BD01C4A183290429B
:100FF00017D01A4A3032904213D0184A48329042E1
:101000000FD0164A603290420BD0144A7832904288
:1010100007D0124A9032904203D0104AA832904230
:1010200003D1006800F0100002E0006800F0020048
:10103000B0B3A96094F835000428206801680FD087
:1010400049037ED5006800032BD4616C2AE00000C0
:1010500010000240280000247000024010040240EA
:1010600021F0160101602068416921F08001416191
:10107000206C08B9A06C20B12068016821F008013B
:10108000016094F85C303F21012003F01F0300222F
:101090009940A96084F8350084F83420216D65E01A
:1010A00003E0E16B09B120468847606D00287DD0E0
:1010B000606DC00759D02068042184F83510B04213
:1010C0002BD0404529D0484527D0504525D05845FC
:1010D00023D09D49884220D09B49183188421CD09A
:1010E00099493031884218D09849884215D097499B
:1010F0001831884211D09549303188420DD093493A
:101100004831884209D091496031884205D08F49E1
:101110007831884201D08D499031016821F0010178
:10112000016020680099019A491C0091914202D8FF
:101130000168C907F6D10068C00710D003200FE08E
:10114000FFE70168C905ACD403680121002223F040
:101150001003036084F8351084F83420A1E70120DF
:1011600084F83500002084F83400E16C00291DD09B
:1011700002B02046BDE8F05F0847754988421DD09F
:1011800073491431884219D071492831884215D0E9
:101190006F493C31884211D06D49503188420DD0A1
:1011A0006B496431884209D0694900E084E07831B4
:1011B000884203D066498C3188427DD194F85C80A6
:1011C0000427016808F01F0807FA08F717EA0C0F50
:1011D000009746D04F0744D500980F04686003D5A8
:1011E000C8033CD4A16CC1E7880638D42068B0425B
:1011F0002DD055496039884229D0484527D05045DF
:1012000025D0584523D05049884220D04E49183126
:1012100088421CD04C493031884218D04B49884212
:1012200015D04A491831884211D048493031884296
:101230000DD046494831884209D0704507D09042C8
:1012400005D0984203D04149A831884203D10168B2
:1012500021F0080102E0016821F004010160216C25
:1012600084E7022707FA08F717EA0C0F00974ED019
:101270008F074CD500980F04686003D5C80344D489
:10128000616C73E7880640D42068B0422FD02E49A5
:10129000603988422BD0484529D0504527D0584541
:1012A00025D02949884222D02749183188421ED0AA
:1012B00025493031884200E044E018D02349884273
:1012C00015D022491831884211D020493031884246
:1012D0000DD01E494831884209D0704507D0904250
:1012E00005D0984203D01949A831884203D101683A
:1012F00021F0140102E0016821F00A0101600121DE
:1013000084F83510002084F83400E16B2EE70822C1
:1013100002FA08F212EA0C0F14D0090712D501687C
:1013200021F00E01016094F85C100120002201F010
:101330001F0100FA01F16960606584F8350084F8E6
:10134000342012E7BDE8FC9F8800024010040240F0
:10135000085402582DE9F05F044601F04BF9002CC7
:1013600007467DD0E24E022120684FF00308DFF8E7
:1013700084934FF00005DFF880A3B042DFF87CB320
:1013800034D0DB4A1832904230D048452ED05045F8
:101390002CD058452AD0D94A1832904226D0D74A64
:1013A0003032904222D0D54A483290421ED0D44AA0
:1013B00090421BD0D24A1832904217D0D04A3032D5
:1013C000904213D0CE4A483290420FD0CC4A60327D
:1013D00090420BD0CA4A7832904207D0C84A903225
:1013E000904203D0C64AA83290427DD184F835108D
:1013F000B04284F834502ED0BD49183188422AD0EA
:10140000484528D0504526D0584524D0BB491831EE
:10141000884220D0B949303188421CD0B749483180
:10142000884218D0B649884215D0B549183188424B
:1014300011D0B349303188420DD0B149483188428A
:1014400009D0AF496031884205D0AD497831884232
:1014500001D0AB499031016821F00101016008E041
:1014600025E100BF01F0C6F8C01B052801D92021E5
:101470001AE120680068C007F4D1D4E902032168AA
:10148000103418438E4694E88410D4E90338096870
:101490003A4310439B4A40EA0C00676918431140E5
:1014A000103C40EA0800042F40EA010003D1D4E9CF
:1014B0000B12114308436168A1F12902052A0BD9D7
:1014C000163A032A08D9083A012A05D9083A032A04
:1014D00002D97439032901D840F48010CEF80000F5
:1014E0002068676A406900E020E0042F20F00700D0
:1014F00047EA00070DD1D4E90A01074349B1204664
:10150000FFF74AF928B140206065012184F83510C1
:10151000CDE0206847612046FFF75CF894F85C2036
:101520003F2102F01F029140816055E0764A9042CF
:101530001BD0754B1433984217D0734B2833984205
:1015400013D0714B3C3398420FD06F4B50339842BD
:101550000BD06D4B6433984207D06B4B7833984275
:1015600003D0694B8C3398427ED184F8351084F8CF
:101570003450664B0168A26801EA030E402A74D019
:10158000802A73D05FF00002D4E90378D4E90531F2
:1015900042EAD70242EAD8085B4AD4E9077C48EA23
:1015A000D30848EAD10141EAD701524241EA1C116D
:1015B000142341EA0E01016020681044B0FBF3F0EF
:1015C0008000E0652046FFF705F894F85C200121D3
:1015D00002F01F02914041602068B04257D0444958
:1015E0001831884253D0484551D050454FD05845C6
:1015F0004DD042491831884249D040493031884263
:1016000045D03E494831884241D03D4988423ED08C
:101610003B49183188423AD039493031884236D076
:1016200037494831884232D03549603188422ED01E
:101630003349783188422AD031499031884226D0C6
:101640002F49A831884222D02F4988421FD02E49E5
:10165000143188421BD02C492831884217D02A499E
:101660003C31884213D002E01DE017E018E0264923
:10167000503188420BD024496431884207D0224936
:101680007831884203D020498C31884229D12046C4
:10169000FEF7FAFFA06880280CD00CE0102273E758
:1016A0004FF4804270E74021616584F83580012065
:1016B000BDE8F09F6560216E20790860D4E91901CA
:1016C00041606068401E072808D82046FFF72AF8C6
:1016D000E06E0560D4E91C01416002E0E566256723
:1016E00065670120656584F835000020E0E70000AB
:1016F00010000240400002405800024070000240CA
:10170000100402403F8010FE085402580F00FEFFF4
:101710002DE9F84F04008C464FF00000009014D0E3
:1017200094F83400012812D094F83550012000219B
:1017300084F83400012D0CD0C002606501200090B7
:1017400084F834100098BDE8F88F0120FBE70220F0
:10175000F9E78C4D0226206884F83560A8428A4D4E
:1017600061658A4E8A4FDFF82C82DFF82C92DFF811
:101770002CA2DFF82CB226D0A84224D0B04222D02E
:10178000B84220D040451ED048451CD050451AD004
:10179000584518D08349884215D08249183188426B
:1017A00011D08049303188420DD07E49483188427D
:1017B00009D07C496031884205D07A497831884225
:1017C00001D078499031016821F001010160614642
:1017D0002046FFF70BF86B49206888422CD0A842BE
:1017E0002AD0B04228D0B84226D0404524D048451F
:1017F00022D0504520D058451ED06A4A90421BD076
:10180000684A1832904217D0664A3032904213D05C
:10181000644A483290420FD0624A603290420BD004
:10182000604A7832904207D05E4A9032904203D0AC
:101830005C4AA83290420CD1026822F01E0242F0AB
:1018400016020260206C88B12068026842F008022B
:101850000BE0026822F00E0242F00A020260206CE5
:1018600020B12068026842F00402026020688842C9
:101870004BD0A84249D0B04247D0B84245D04045AD
:1018800043D0484541D050453FD058453DD0454ACA
:1018900090423AD0434A1832904236D0414A3032D0
:1018A000904232D03F4A483290422ED03D4A603278
:1018B00090422AD03B4A7832904226D0394A903220
:1018C000904222D0374AA83290421ED0364A9042E7
:1018D0001BD0354A1432904217D0334A28329042F6
:1018E00013D0314A3C3290420FD02F4A50329042AE
:1018F0000BD02D4A6432904207D02B4A7832904266
:1019000003D0294A8C3290420DD1206E0268D20356
:1019100003D5026842F480720260E06E18B102687A
:1019200042F4807202602068884226D0A84224D007
:10193000B04222D0B84220D040451ED048451CD0ED
:1019400050451AD0584518D01649884215D0154927
:101950001831884211D01349303188420DD01149D5
:101960004831884209D00F496031884205D00D497D
:101970007831884201D00B499031016841F0010172
:101980000160DFE6100002402800024040000240F3
:10199000580002407000024088000240A00002404F
:1019A000B8000240100402400854025870B50446C2
:1019B00000F020FE0546601C02D004480078044474
:1019C00000F018FE401BA042FAD370BD1C0000249A
:1019D00010B590F89830012B09D0022B07D0D0F821
:1019E0009C1041F00201C0F89C10012010BD03685A
:1019F0009C6D0C4203D1DC6D44F0010404E09C6D4D
:101A000031EA04041FD00324DC658B0505D5036887
:101A1000D3F8E0401443C3F8E0404B0505D5036814
:101A2000D3F8E4401443C3F8E4400068084A01EAEC
:101A30000203446D074A1C434465106840EA9170F4
:101A40001060002010BDDC6D44F00204DCE70000F3
:101A5000FFFFCF3F14A8004070B5044690F89800EF
:101A6000022804D0D4F89C0040F008000DE0206863
:101A7000D0F8C03013F07C5F0BD0D0F8C4309B029C
:101A80000CD5D4F89C0040F40070C4F89C000120F0
:101A900070BDD4F89C0040F02000F6E7D0F8C400F8
:101AA000C0F3044520462B46FFF79EF8216801202D
:101AB000A840C1F8D000C4F89400002070BD704761
:101AC00090F89830012B07D0D0F89C1041F0040119
:101AD000C0F89C100120704761B10068012913D043
:101AE000D0F8B01021F0FE4141EA0261C0F8B01018
:101AF000002070470068D0F8F01021F07C5141EAD6
:101B00000261C0F8F010F3E7D0F8A01021F0FE4118
:101B100041EA0261C0F8A010EAE770B590F8982099
:101B2000012A09D0022A07D0D0F89C1041F0020106
:101B3000C0F89C10012070BD0B68CA6883B10B69A6
:101B4000072A43EA427325D00C7A4A6942EA847232
:101B50004968006F00EBC100C0E90032002070BD91
:101B6000072A0DD00C7AD6060D8A4B6943EA847297
:101B700046EA0543C06E49681A4340F82120EDE764
:101B80000B8A4FF06055D1E9062442EA034245EA48
:101B90000423EFE78A69DBE730B590F89850039C9F
:101BA000012D07D0D0F89C1041F00401C0F89C1022
:101BB000012030BD0D01016845EA820040EA430082
:101BC0002043C1F88000002030BD7047890104D552
:101BD0000068816921F0010181617047F0B590F8DA
:101BE00098500024022D04D0D0F89C1041F0080138
:101BF00029E0402905D0412929D0056D8D4219D908
:101C000042E00568D5F8A06016F4FE0F12D0D5F8B2
:101C1000A460760613D0D5F8A460F60105D5D5F8F2
:101C2000A06016F0004F00D50124D5F8A470466FCF
:101C3000456C24E0D0F89C1041F0200103E0D0F87E
:101C40009C1041F48071C0F89C100120F0BD056823
:101C5000D5F8B06016F4FE0FECD0D5F8B460760677
:101C6000EDD0D5F8B460F60105D5D5F8B06016F022
:101C7000004F00D50124D5F8B470866FC56CC7F34A
:101C800005273C44654302E0456DC66F4D4306EBB6
:101C900085052E6816F0804656602E6836D026F0F0
:101CA00060461660D5F800C000262E4F0CF0005C90
:101CB000C2F808C0D5F800C00CF0004CC2F810C043
:101CC000B5F804C01FFA8CFCC2F81CC0D5F804C0DB
:101CD000CCF3034CC2F80CC0D5F804C00CF4801C43
:101CE000C2F814C0D5F804C00CF4001CC2F818C027
:101CF000D5F804C0CCF3066CC2F820C0D5F804C0F7
:101D000008354FEADC7CC2F824C008E0C6F38A46F6
:101D1000C7E700BF15F806C003F806C0761CD2F866
:101D20000CC017F80CC0B445F4D840290AD041299A
:101D30000CD020294FF001020CD200688A40C0F874
:101D400098200DE00068C0F8A84009E00068C0F8DD
:101D5000B84005E0006801F01F018A40C0F89C20EF
:101D60000020F0BDAC530008704700002DE9FF5F74
:101D7000DFF80CB304460BF10401DBF80000256822
:101D80000F68AA468007D5F85090696DD5F8508045
:101D90006E6D2A6DD5F854C02B6D00EA87700090E7
:101DA00009F470496F6D286D01EA09010191DAF8B3
:101DB0005410DAF85490DAF8505008F00F0806EA98
:101DC0000806029602F0F00203F071536FEA09066A
:101DD0001F4000F060700CEA020CCDF80CC0F20558
:101DE00001EA00090CD4E843C00509D400214FF4EE
:101DF0008073CAF85030CBF800102046FFF7B4FFCC
:101E0000700512D4E84340050FD4206800234FF436
:101E10008068D0F8DC20D0F8E410C0F85080CBF80F
:101E200000301140204600F0D3FADFF858A20098A5
:101E300050B12268830F00EA0A001065CBF8003029
:101E400020460099FFF73BFE019850B12268830FAE
:101E500000EA0A001065CBF800302046019900F036
:101E6000B9FA029850B12268830F00EA0A0010659F
:101E7000CBF800302046029900F078FA039850B170
:101E80002268830F00EA0A001065CBF80030204674
:101E9000039900F07DFA30050CD4E843000509D41D
:101EA000236800204FF400621A65CBF8000020463A
:101EB00000F091FAB00512D4E84380050FD42068F1
:101EC00000234FF40078D0F8D820D0F8E010C0F804
:101ED0005080CBF800301140204600F07AFA3003F1
:101EE0000CD4E843000309D4236800204FF40022F7
:101EF0001A65CBF80000204600F036FAF0030CD447
:101F0000E843C00309D4236800204FF480321A65E7
:101F1000CBF80000204600F05AFA70030CD4E843D6
:101F2000400309D4226800204FF480231365CBF8C6
:101F30000000204600F04AFAB0030FD4E8438003C3
:101F40000CD4236800204FF400321A65CBF800004F
:101F5000D4F89C0040F08000C4F89C00B9F1000F58
:101F60000BD022684FEA997309EA0A001065CBF892
:101F7000003049462046FFF729FE5FB12268BB0FBB
:101F800007EA0A001065CBF80030D4F89C0038430B
:101F9000C4F89C003C492068884268D1606881464A
:101FA0008068800763D0D9F82060D9F82410D9F868
:101FB0002080D9F82400D9F820C0D9F82470D9F8A5
:101FC0002030D9F82450D9F8202003F4FC4306F03F
:101FD0000F0AD9F824601D40D9F824B008F0300861
:101FE0000CF4C07C02F4F02211EA0A0100EA0808AD
:101FF00007EA0C0706EA0206D9F820A004D0C9F8BF
:102000002010204600F0DFF9B8F1000005D061682B
:1020100008624146204600F0D8F96FEA0B004006FE
:102020000ED46FEA0A0040060AD460684021C36BF0
:10203000C26B01622046190C02F03F0200F0C4F9A5
:102040002FB1606807623946204600F0BBF935B110
:1020500060680562D4F89C002843C4F89C0036B13F
:1020600060680662D4F89C003043C4F89C00D4F841
:102070009C00002802D02046FFF7A7FDBDE8FF9F87
:1020800010A80040FFFFCF3F00A000402DE9F04125
:1020900094B08D494C2204466846FEF7FEF964B1BF
:1020A0008A4D2068A84202D100F58070606094F8E3
:1020B00098004FF0000820B108E0012014B0BDE8FE
:1020C000F081204684F8998000F002F92068816947
:1020D00021F01001816100F08DFA0327064604E02B
:1020E00000F088FA801B0A2811D820688069000750
:1020F000F6D42068816941F00101816100F07AFA2B
:1021000006460DE000F076FA801B0A2808D9D4F8BC
:102110009C0040F00100C4F89C0084F89870CCE763
:1021200020688069C007EDD02068816941F0020114
:102130008161207C01282068816937D041F040010D
:102140008161607C01282068816932D021F480415E
:102150008161A07C0128206881692DD041F48051E3
:1021600081612068A268816921F440711143816115
:102170002068816921F0A40181612068016921F052
:1021800010010161E068012819D010B302281BD0AA
:102190002068816941F0800181612068016941F016
:1021A00010010161E06803280ED012E021F0400127
:1021B000C6E741F48041CBE721F48051D0E72068A5
:1021C000816941F0040103E02068816941F0200148
:1021D0008161207E6FF0FF02D4E90773A68A1102A5
:1021E000400602EB0727A0F10070384327685B1E0A
:1021F000184301EB06463043F861A068B0F5407F14
:1022000011D104F12800A68C6FF00F0C89C801EBE6
:102210000641401E02EB0322104322680CEB071319
:1022200018430843D060206E30B12068626ED0F849
:10223000C0101143C0F8C010D4E917126846D1424B
:1022400009D02168A36E51F8C82F50F8233022F02E
:1022500007021A430A60216C49B12168626C51F887
:10226000BC3F50F8226023F0070232430A60A16CA1
:1022700051B12168E36C51F8BC2F50F8233022F0A3
:10228000700242EA03120A60216D51B12168626D49
:1022900051F8BC3F50F8220023F4E06242EA0020EB
:1022A00008602068A84204D16068816821F00301B9
:1022B0008160C4F894800121C4F89C8084F898104F
:1022C0002046FEF7ADFBF9E6BC53000800A0004035
:1022D00010B5B4B0044614212EA8FEF710F9B821A9
:1022E0006846FEF70CF91D492068884234D1002069
:1022F0004FF40041CDE900104A0368461B9200F0FC
:10230000F1FB08B1FEF783FB1548016841F48071C9
:102310000160006800F48070339011480C38016847
:1023200041F00801016000680923032100F0080062
:10233000339000202E9102222EA9CDE92F20CDE945
:102340003103084800F048F800221320114600F03D
:1023500017FA132000F006FA34B010BD00A00040B8
:10236000EC440258000C02587047000000B58DB0D4
:1023700040216A460AABFFF731FC002803D103482D
:102380000AA902F0DDFD0DB000BD0000DC01002453
:10239000704790F89810012907D0D0F89C1041F0B0
:1023A0000401C0F89C1001207047022180F89810A9
:1023B000002201688B6923F001038B61C0F89C2027
:1023C00010467047704770477047704770477047B6
:1023D00070477047704770472DE9F84F03247A4DD6
:1023E00000234FF001094FF0B04B4FF00F0AE4E02B
:1023F00009FA03F6324078D00F7907F00307012F6E
:1024000001D0022F1AD187684FEA430ED1F80CC0D1
:1024100004FA0EF827EA08070CFA0EFC4CEA070C3F
:10242000C0F808C0476891F804C0B743CCF3001C5B
:102430000CFA03FC4CEA070CC0F804C00E79F64312
:10244000B6070BD0C6684FEA43088F6804FA08FC49
:1024500026EA0C0607FA08F73743C7600E7906F03C
:102460000306022E12D1DE080F694FEA437C00EB0F
:102470008606B646366A4FEADC6C0AFA0CF807FAAA
:102480000CF726EA08063743CEF820700F79066865
:102490004FEA430807F0030704FA08FC07FA08F7B5
:1024A00026EA0C06374307604E6816F4403F1CD0FE
:1024B000464E376847F00207376036689F0706F0D8
:1024C0000206009623F0030606F1B046B6463F0F1B
:1024D000D6F80864DFF8F8800AFA07FC404526EAD7
:1024E0000C0603D14FF0000C3AE065E0DFF8E4C0E1
:1024F000604502D14FF0010C32E0DFF8DCC06045EE
:1025000002D14FF0020C2BE0DFF8D0C0604502D1C1
:102510004FF0030C24E0DFF8C8C0604502D14FF053
:10252000040C1DE0DFF8BCC0604502D14FF0050C83
:1025300016E0DFF8B4C0604502D14FF0060C0FE0A2
:10254000DFF8A8C0604502D14FF0070C08E0DFF8C3
:10255000A0C0604502D14FF0090C01E04FF00A0C19
:102560000CFA07FC4CEA060CCEF808C44F68DBF8FE
:102570000060FF0226EA020600D516435F46CBF84C
:102580000060D1F804C0DBF804605FEA8C2C26EA16
:10259000020600D516437E606E684F6826EA020682
:1025A000BF0300D516436E602E684F6826EA020608
:1025B000FF0300D516432E605B1C0A6832FA03F64F
:1025C0007FF416AFBDE8F88F80000058F44402583D
:1025D000000002580004025800080258000C02587B
:1025E000001002580014025800180258001C02582B
:1025F0000024025801488068704700001C00002435
:102600000248816802781144816070471C000024F0
:10261000032010B500F0D4F801F076F80F4A104905
:1026200014681368C4F3032203F00F038A5CC95CC7
:1026300002F01F0201F01F01D0400A4A20FA01F106
:102640001160094908600F2000F010F808B101205E
:1026500010BD00F079F8002010BD000018440258A9
:10266000305400082C0000242800002470B50D4DC3
:1026700004462878A0B14FF47A71B1FBF0F00A4912
:102680000968B1FBF0F001F06EFB48B9102C07D2DD
:1026900000222146501E00F073F800206C6070BDCF
:1026A000012070BD1C00002428000024154BF0B54B
:1026B000083B427813491A600B680A1F23F0010394
:1026C0000B6043681360057BC67A827A437B2D07D3
:1026D000847B45EA0665C77B90F809C0067A90F8C6
:1026E00000E045EAC24040EA834040EA444040EA14
:1026F000074040EA0C2040EA460040EA0E0008602D
:10270000F0BD0000A0ED00E0BFF35F8F04480021A2
:102710000368034A23F4803303607032116070470A
:1027200024ED00E0074A40F00100064970321060D5
:10273000086840F480300860BFF34F8FBFF36F8F9D
:102740007047000024ED00E0054808B5016841F03D
:1027500002010160006800F00200009008BD000066
:10276000F4440258002809DB410900F01F028900E7
:10277000012001F1E0219040C1F800017047000004
:102780000E4BF0B41B680D46C3F30223C3F10706DA
:10279000042E00D90426191D072901D2002300E0C8
:1027A000DB1E012404FA06F19C40491E2940641EE8
:1027B000994014402143F0BC02F07FBB0CED00E0D7
:1027C000064900F0070210B54FF6FF040868044BF5
:1027D000204040EA02201843086010BD0CED00E0E4
:1027E0000000FA05134970B50A68D243520705D5AF
:1027F000096801F00701814213D118E00A6822F04C
:10280000070202430A60FFF7F5FE0A4D4FF47A769D
:102810000446083D07E000BFFFF7ECFE001BB04296
:1028200001D9012070BD2868C0438004F4D4002081
:1028300070BD00000C48025810B500F01FFF05499C
:102840000968054AC1F30211515C01F01F01C8403B
:1028500010BD00002044025830540008494930B5EA
:10286000484C0B1D0A68143409681D68246802F07E
:102870000303C5F30012C1F30531C4F3CC040029EE
:1028800014FB02F200EE102AF8EE400A75D03F4A1F
:102890009FED3D1AB7EE000A6BB1DFED3D1A012B3B
:1028A00001D0022B64D002EE101A1168F8EE422A11
:1028B00081EEA22A21E0334C283C23689B0612D5E6
:1028C000344B246801EE901A1168C4F3C104F8EE89
:1028D000612AE34001EE903AC1F30801F8EE611A73
:1028E00081EEA22A0BE001EE901ADFED2B2A00BF49
:1028F000F8EE611A116882EEA12AC1F3080101EE17
:10290000901A1168F8EE611A40EE811A71EE800A91
:1029100062EE200AC1F3462101EE101AB8EE411A08
:1029200031EE001AC0EE811ABCEEE11A80ED001AF9
:102930001168C1F3064101EE101AB8EE411A31EEEA
:10294000001AC0EE811ABCEEE11A80ED011A11687E
:10295000C1F3066101EE101AB8EE411A31EE000A19
:1029600080EE801ABCEEC10A80ED020A30BD04E0A0
:1029700001EE901ADFED092ABAE7002101604160FB
:102980008160F3E7284402580000003938440258B7
:102990000024744A0090D0030024744C001BB74BF1
:1029A000494930B5484C0B1D0A681C3409681D683C
:1029B000246802F00303C5F30022C1F30551C4F3F8
:1029C000CC04002914FB02F200EE102AF8EE400AB3
:1029D00075D03F4A9FED3D1AB7EE000A6BB1DFEDAF
:1029E0003D1A012B01D0022B64D002EE101A11689F
:1029F000F8EE422A81EEA22A21E0334C283C2368DB
:102A00009B0612D5344B246801EE901A1168C4F36A
:102A1000C104F8EE612AE34001EE903AC1F30801E7
:102A2000F8EE611A81EEA22A0BE001EE901ADFEDBA
:102A30002B2A00BFF8EE611A116882EEA12AC1F3B9
:102A4000080101EE901A1168F8EE611A40EE811A41
:102A500071EE800A62EE200AC1F3462101EE101ADF
:102A6000B8EE411A31EE001AC0EE811ABCEEE11A3E
:102A700080ED001A1168C1F3064101EE101AB8EE9C
:102A8000411A31EE001AC0EE811ABCEEE11A80ED57
:102A9000011A1168C1F3066101EE101AB8EE411A6D
:102AA00031EE000A80EE801ABCEEC10A80ED020A07
:102AB00030BD04E001EE901ADFED092ABAE70021EB
:102AC000016041608160F3E728440258000000394A
:102AD000404402580024744A0090D0030024744CEF
:102AE000001BB74B2DE9FE4F0546DFF800A450F858
:102AF000081B0024FD4FC943019005F1280026461C
:102B00000AF1240A009008011DD4686E50B1B0F596
:102B1000801F0CD0B0F5001F0ED0B0F5401F1ED0A6
:102B200001240FE0386840F40030386017E0019865
:102B3000022101F04FFC03E00098022101F0DAFCD1
:102B400004000CD026462888C043C00523D4A86DB5
:102B500005281ED2DFE800F00C11161B1B006A6E60
:102B6000DAF8001021F440111143CAF80010EAE726
:102B7000386840F40030386009E00198002101F025
:102B800029FC03E00098002101F0B4FC0446C4B124
:102B900000E0012426462888DFF85083C04308F16E
:102BA0002C0840052FD4D5F8A400B0F5C00F28D0CC
:102BB00010DCB8B1B0F5001F19D0B0F5800F0FD1FF
:102BC0001AE0AA6DDAF8001021F007011143CAF8E3
:102BD0000010E0E7B0F5000F13D0B0F5200F10D0D3
:102BE00001240FE0386840F40030386009E00198B3
:102BF000002101F0EFFB03E00098002101F07AFCD6
:102C0000044694B126462888C043000530D4D5F840
:102C1000A800B0F1407F29D011DCC0B1B0F1807FB5
:102C20001AD0B0F1007F10D11BE0D5F8A420D8F85D
:102C3000001021F460011143C8F80010E3E7B0F17F
:102C4000806F13D0B0F1A06F10D001240FE038686E
:102C500040F40030386009E00198002101F0BAFB2F
:102C600003E00098002101F045FC044694B126469B
:102C70002868DFF878B2C0430BF1200B80011FD425
:102C8000E86CD8B110280FD0202812D0302815D0E9
:102C9000012414E0D5F8A820D8F8001021F0E06154
:102CA0001143C8F80010E3E7386840F4003038609A
:102CB00004E00198022101F08DFB044674B1264620
:102CC0002888C043C0042BD4E86DB0F5005F20D045
:102CD0000DDCA0B1B0F5805F0FD115E0EA6CDBF838
:102CE000001021F030011143CBF80010E8E7B0F5F7
:102CF000405F13D0B0F5804F10D001240FE038684A
:102D000040F40030386009E00198002101F062FBD6
:102D100003E00098002101F0EDFB04468CB126464B
:102D20002888C043800429D4286EB0F5403F23D0C2
:102D300010DC08B3B0F5803F14D0B0F5003F0FD1E0
:102D400015E0EA6DDAF8001021F4E0411143CAF809
:102D50000010E5E7B0F5802F0ED0B0F5A02F0BD016
:102D600001240AE00198012101F034FB03E00098FE
:102D7000012101F0BFFB044694B126462888C043D8
:102D800040042AD4D5F8AC00B0F1405F23D010DC69
:102D900008B3B0F1805F14D0B0F1005F0FD115E03F
:102DA0002A6EDAF8001021F4E0211143CAF800106D
:102DB000E4E7B0F1804F0ED0B0F1A04F0BD001246A
:102DC0000AE00198012101F005FB03E000980121D0
:102DD00001F090FB044674B126462888C0430004E5
:102DE0001FD4E86ED8B1B0F1805F0ED0B0F1005FB3
:102DF00010D0012414E0D5F8AC20D8F8001021F050
:102E0000E0411143C8F80010E7E7386840F40030AB
:102E1000386004E00198012101F0DCFA044674B145
:102E200026462868C043C0011ED4A86CD0B1012832
:102E30000ED0022811D0032814D0012413E0EA6E2A
:102E4000DAF8001021F040511143CAF80010E8E709
:102E5000386840F40030386004E00198022101F045
:102E6000B9FA04466CB126462868C043400255D4DE
:102E70001F48016841F480710160FFF7BBFB814688
:102E80000EE0AA6CDBF8001021F003011143CBF82F
:102E90000010E9E7FFF7AEFBA0EB090064283BD880
:102EA00013480068C005F5D5BCBBDFF84090B5F805
:102EB000B01009F14409D9F8000001F4407100F4A0
:102EC0004070884211D0D9F80010D9F8002021F4C0
:102ED000407142F48032C9F80020D9F8002022F471
:102EE0008032C9F80020C9F8001003E02C440258D1
:102EF00000480258D5F8B000B0F5807F19D1FFF72F
:102F000079FB029011E000BFFFF774FB0299411AB0
:102F100041F28830814208D9032426462878DFF818
:102F20001494C043C00721D03CE0D9F800008007CA
:102F3000EAD5D5F8B010C1F301200328FE480DD022
:102F4000016821F47C510160B5F8B020D9F8001077
:102F5000C2F30B021143C9F80010DFE7F74A036818
:102F600002EA111223F47C511143ECE7A86F1828F0
:102F700016D005DCA0B1082808D0102804D10AE03A
:102F800020280DD028280BD001240AE00198012127
:102F900001F020FA03E00098012101F0ABFA0446A9
:102FA00064B126462878C04380071ED4686F06287F
:102FB00019D2DFE800F0160C11161616AA6FD9F810
:102FC000001021F038011143C9F80010EAE7019818
:102FD000012101F0FFF903E00098012101F08AFAD4
:102FE00004467CB100E0012426462878C04340070F
:102FF0001FD4D5F89000062819D2DFE800F0160C8F
:10300000111616166A6FD9F8001021F00701114346
:10301000C9F80010E9E70198012101F0DBF903E0AC
:103020000098012101F066FA0446A4B100E00124F1
:1030300026462878C04380062BD4D5F88C00B0F102
:10304000405F24D011DC10B3B0F1805F15D0B0F137
:10305000005F10D116E0D5F89020D8F8001021F0CC
:1030600007011143C8F80010E3E7B0F1804F0ED01C
:10307000B0F1A04F0BD001240AE00198002101F02B
:10308000A9F903E00098022101F034FA044694B152
:1030900026462878C04340062BD4D5F89800B0F5D2
:1030A000406F24D011DC10B3B0F5806F15D0B0F5AF
:1030B000006F10D116E0D5F88C20D9F8001021F05F
:1030C000E0411143C9F80010E3E7B0F5805F0ED08E
:1030D000B0F5A05F0BD001240AE00198002101F0B7
:1030E00079F903E00098022101F004FA044694B152
:1030F00026462878C04300062BD4D5F89C00B0F5AE
:10310000C04F24D011DC10B3B0F5005F15D0B0F57E
:10311000804F10D116E0D5F89820D8F8001021F48F
:10312000E0511143C8F80010E3E7B0F5004F0ED0AE
:10313000B0F5204F0BD001240AE00198002101F0E6
:1031400049F903E00098022101F0D4F9044654B192
:1031500026462878C04300071ED4D5F88000B0F575
:10316000805F0AD00FE0D5F89C20D8F8001021F439
:1031700060411143C8F80010EBE70098022101F00C
:10318000B9F900B10126D5F88020D9F8001021F452
:1031900040511143C9F800102878C043C00613D429
:1031A000D5F89400B0F5807F05D10098022101F098
:1031B000A1F900B10126D5F89420D8F8001021F427
:1031C00040711143C8F800102868C043000316D4AA
:1031D000D5F8A00038B1B0F5803F09D0B0F5003F78
:1031E0000BD001240AE00198002101F0F3F803E07C
:1031F0000098022101F07EF904468CB12646286829
:10320000C043400322D4D5F88400B0F5801F11D00C
:10321000B0F5001F13D0B0F5401F15D0012414E005
:10322000D5F8A020D8F8001021F440311143C8F897
:103230000010E4E7386840F40030386004E000989B
:10324000012101F057F904465CB126462868C043C5
:10325000C0031CD4286D70B1B0F5803F10D001249C
:1032600014E0D5F88420D9F8001021F4401111435E
:10327000C9F80010EAE7386840F40030386004E02C
:103280000198022101F0A6F80446DCB12646286820
:10329000C043800005D40098022101F02BF900B151
:1032A00001262868C04380031BD4E86FB8B1B0F58D
:1032B000807F10D0B0F5007F11D0B0F5407F0ED0E8
:1032C00001240DE02A6DDBF8001021F48031114358
:1032D000CBF80010DBE7386840F4003038607CB38E
:1032E00026462868C043C00207D42A6FDAF80010C7
:1032F00021F000411143CAF800102868C043800241
:1033000007D4AA6EDAF8001021F080711143CAF8D0
:1033100000102868C043400009D40748016821F420
:10332000004101600168D5F8B420114301602868AC
:10333000C04306E05444025810440258CFFFFF0037
:103340001DE007D46A6DDBF8001021F040511143F5
:10335000CBF800102868C043000208D4D5F88820B4
:10336000D9F8001021F440011143C9F80010287960
:103370000024C04300F00100204309D00EE0EA6FB2
:10338000D9F8001021F440711143C9F80010A8E7E2
:103390000198002101F01EF800B106462879C043CB
:1033A00000F00200204305D10198012101F012F83C
:1033B00000B106462879C04300F00400204305D13F
:1033C0000198022101F006F800B106462879C043B1
:1033D00000F00800204305D10098002101F08AF890
:1033E00000B106462879C04300F01000204305D103
:1033F0000098012101F07EF800B106462879C0430B
:1034000000F02000044304D10098022101F072F87A
:1034100000B916B10120BDE8FE8F0020FBE70000D7
:103420002DE9F05F04000F467ED0DFF83882D8F82F
:10343000000000F00F00B8420CD2D8F8001021F0C4
:103440000F013943C8F80010D8F8000000F00F0051
:10345000B84269D12078844D40070AD5206929688F
:1034600001F07001884204D9296821F070010143FC
:10347000296020787C4E361D00070AD560693168C6
:1034800001F07001884204D9316821F070010143D4
:1034900031602078C0060AD5A069316801F4E06186
:1034A000884204D9316821F4E06101433160207819
:1034B000DFF8B4B180060BF1080B0CD5E169584672
:1034C000DBF8002002F07002914204D9026822F079
:1034D00070020A430260207880070AD5E0682968F4
:1034E00001F00F01884204D9296821F00F0101433E
:1034F00029602078C0073ED05B49A2682868183947
:1035000020F47060104328606068022818D00328F7
:1035100019D00968012819D0490700294ADADFF8CB
:1035200048A1AAF1080A00E044E0DAF8002022F0FD
:1035300007020243CAF80020FFF75CF8814612E058
:1035400009688903E9E709688901E6E7C905E4E74D
:10355000FFF750F8A0EB090141F28830814202D90F
:103560000320BDE8F09F6168DAF8000000F0380041
:10357000B0EBC10FECD1207880070AD5E06829684C
:1035800001F00F01884204D2296821F00F010143A4
:103590002960D8F80010404601F00F01B9420BD95C
:1035A000016821F00F0139430160006800F00F004D
:1035B000B84201D00120D4E7207840070AD520691D
:1035C000296801F07001884204D2296821F0700155
:1035D00001432960207800070AD56069316801F04D
:1035E0007001884204D2316821F0700101433160DA
:1035F0002078C0060AD5A069316801F4E0618842EC
:1036000004D2316821F4E061014331602078800602
:103610000CD5E1695846DBF8002002F070029142B7
:1036200004D2026822F070020A43026000F06CF8D3
:103630000E492A682B68C2F3032203F00F038A5C49
:10364000C95C02F01F0201F01F01D040084A20FAB5
:1036500001F111600749086007480068BDE8F05FA4
:10366000FFF704B8002000521844025830540008F4
:103670002C000024280000242000002430B500F095
:1036800043F80B4A0B490C4B15681468C5F3032229
:1036900004F00F048A5C095D02F01F0201F01F01B3
:1036A000D040064A20FA01F119601060084630BD8A
:1036B00018440258305400082C000024280000242C
:1036C00000B5FFF7DBFF05490968054AC1F30211A0
:1036D000515C01F01F01C84000BD00001C440258AD
:1036E0003054000800B5FFF7C9FF05490968054ACD
:1036F000C1F30221515C01F01F01C84000BD000070
:103700001C44025830540008454970B545480968C2
:10371000434B103B11F0380208D00111082A03D0A6
:10372000102A0BD0182A0BD0084670BD19688906DC
:10373000FBD51968C1F3C101C84070BD3A4870BDDE
:103740003749374D18310C1D24350A680968266839
:103750002D6802F0030406F00102C1F30511C5F360
:10376000CC0515FB02F200EE102AB8EE400AE9B3D0
:103770002F4ADFED2E0AB7EE001A6CB1DFED2D1ADD
:10378000012C01D0022C43D002EE101A1068F8EE82
:10379000422A81EEA22A1EE01C68A40611D51B68ED
:1037A00001EE901A1168C3F3C103F8EE612AD84004
:1037B00001EE900AC1F30800F8EE611A81EEA22A28
:1037C0000BE001EE901ADFED1C2A00BFF8EE611A43
:1037D000106882EEA12AC0F3080001EE900AF8EE0C
:1037E000611A40EE201A31EE810A00E015E022EE67
:1037F000000A1068C0F34620401C00EE900AF8EE64
:10380000600A80EE201ABCEEC10A10EE100A70BDEC
:1038100001EE901ADFED092AD8E7002070BD000004
:10382000104402580090D00300366E0100000039A9
:10383000304402580024744A0024744C001BB74BD7
:103840002DE9F05F04007DD0FF4F2078FE4D183742
:10385000DFF8F483103DC00748D0D8F8000039687D
:1038600000F03800102815D0182803D101F003000B
:1038700002280FD06068B0F5803F12D010B1B0F5CB
:10388000A02F18D0286820F480302860286820F401
:10389000802009E02868800328D560680028D2D0FD
:1038A00024E0286840F480302860606888B1FEF722
:1038B000A1FE064609E0286840F480202860F0E771
:1038C000FEF798FE801B64287ED828688003F7D511
:1038D0000CE0FEF78FFE064605E000BFFEF78AFE0D
:1038E000801B6428F0D828688003F7D420788007EC
:1038F00056D5D8F80000DFF85093396810F038003A
:10390000A9F10C090ED0182801D188070AD0E06867
:10391000A8B3296821F0190101432960FEF76AFE66
:10392000064628E02868400702D5E06800288AD0CB
:10393000E168286820F0190008432860FEF75AFE65
:10394000064606E0D2E000BFFEF754FE801B0228C8
:10395000BAD828684007F7D5217CD9F8002022F092
:10396000FE4242EA0161C9F8001019E0FEF742FE8A
:10397000801B0228A8D828684007F7D5ECE7FFE7A6
:10398000286820F001002860FEF734FE064604E0B7
:10399000FEF730FE801B022896D828684007F7D42F
:1039A0002078C00646D5D8F80000DFF89C92396828
:1039B00000F03800A9F10409082812D0182805D110
:1039C00001F00300012800E0CEE00AD0E069002801
:1039D000286820D040F080002860FEF70BFE0646E5
:1039E00015E02868C00502D5E06980287ED194F8EA
:1039F0002010D9F8002022F07C5242EA0161C9F877
:103A0000001017E0FEF7F6FD801B0228A0D82868FA
:103A1000C005F7D5EBE720F080002860FEF7EAFD4F
:103A2000064604E0FEF7E6FD801B022890D82868D1
:103A3000C005F7D42078000729D583486169643030
:103A400000298146016811D041F001010160FEF7B3
:103A5000D1FD064605E000BFFEF7CCFD801B022825
:103A600088D8D9F800008007F6D510E021F00101D0
:103A70000160FEF7BFFD064605E000BFFEF7BAFD98
:103A8000801B022870D8D9F800008007F6D420786F
:103A9000800623D5A0690028286810D040F4805003
:103AA0002860FEF7A7FD064605E000BFFEF7A2FD71
:103AB000801B022858D828688004F7D50EE020F42F
:103AC00080502860FEF796FD064604E0FEF792FD62
:103AD000801B022848D828688004F7D42078400743
:103AE00051D5DFF86891D9F8001000E015E141F4F4
:103AF0008071C9F80010FEF77DFD064605E000BFA5
:103B0000FEF778FD801B64282ED8D9F80000C00588
:103B1000F6D54D4EA068603601280AD008B10528B8
:103B200013D0306820F001003060306820F00400CD
:103B300002E0306840F001003060A06841F2883A4D
:103B400098B1FEF757FD81460AE0306840F0040066
:103B50003060EEE7FEF74EFDA0EB0901514503D8BA
:103B600030688007F6D50EE072E0FEF743FD81462F
:103B700006E000BFFEF73EFDA0EB0901514567D806
:103B800030688007F6D4606A00287CD0DFF8B8A0DF
:103B9000D8F800100AF1200A4FF6F87B0AF1040861
:103BA000C1F3C2010329AAF104096DD002282868D3
:103BB00020F08070286003D0FEF71CFD044681E0F1
:103BC000FEF718FD064604E0FEF714FD801B0228F0
:103BD00075D828688001F7D4E26A40F2F33138687A
:103BE00054F8283F884340EA021018433860217B8C
:103BF0004FF4FE0C22894FF0FE47208A4902267DB1
:103C0000521E401EA1F5007189B2C2F30802114391
:103C1000761E0CEA00400143484607EA066211435B
:103C2000CAF80010D9F8001021F00101C9F80010FD
:103C3000D8F80030266A23EA0B0343EAC601C8F825
:103C40000010D9F8001004E010440258004802584F
:103C500035E0A26921F00C011143C9F80010016898
:103C6000E26921F0020111430160016841F48031F1
:103C70000160016841F400310160016841F4802174
:103C80000160016801E06CE020E041F001010160A9
:103C9000286840F080702860FEF7ACFC044604E021
:103CA000FEF7A8FC001B022809D828688001F7D578
:103CB00057E000BFFEF79EFC001B022802D903203C
:103CC000BDE8F09F28688001F4D44AE039680128F3
:103CD000DAF8000021D0A26A01F0030393421CD15C
:103CE000E26AC1F305118A4217D1216BC0F30802C1
:103CF000491E8A4211D1616BC0F34622491E91428E
:103D00000BD1A16BC0F30642491E914205D1E16B74
:103D1000C0F30660491E814201D00120D0E7A16CAA
:103D20004646D8F80000C0F3CC00814219D0D9F83B
:103D300000004D4620F00100C9F80000FEF75AFCD3
:103D40004FEA0007FEF756FCB842FBD0A26C306881
:103D500020EA0B0040EAC2003060286840F0010011
:103D600028600020ACE7401EB0F1807F10B501D381
:103D7000012010BD4FF0E02460610F21601701F0B9
:103D80009CF80020A0610721216110BD30B590F89A
:103D90008410012918D0012280F884202421C0F841
:103DA00088100022202401680B680D6823F000535E
:103DB00025F001050D60426601680B60C0F888407F
:103DC00080F88420104630BD022030BD70B5044616
:103DD00090F8840001281DD0012284F8842024203A
:103DE000C4F8880020680568026822F001020260B9
:103DF0002068826822F060620A438260204600F0F8
:103E0000B9FC2268202100201560C4F8881084F8CD
:103E1000840070BD022070BD70B5044690F8840027
:103E200001281DD0012284F884202420C4F88800B1
:103E300020680568026822F001020260206882683A
:103E400022F060420A438260204600F093FC226820
:103E5000202100201560C4F8881084F8840070BD0B
:103E6000022070BD704710B5040003D0D4F888005C
:103E700010B107E0012010BD002084F88400204626
:103E800000F026F82420C4F888002068016821F09A
:103E900001010160A06A10B1204600F08DFC2046AF
:103EA00000F0D2FD0128E6D02068416821F490415D
:103EB00041602068816821F02A01816020680168E2
:103EC00041F0010101602046BDE8104000F0D8BC7F
:103ED000F0B5B5B0054614212EA8FCF710FBB821AB
:103EE0006846FCF70CFB2A49286888424DD101201E
:103EF0004FF0200C002118220C468DE8070003A982
:103F00000226A923032781E8C80008201E90CDE9D6
:103F10000664CDE908C46846FEF7E4FD08B1FCF785
:103F200076FD1C48016841F010010160006800F056
:103F30001000339017481038016841F0010101600A
:103F40000068072100F0010033904FF4C0602E900C
:103F5000CDE92F64CDE931410F482EA9FEF73CFA97
:103F60000E4E2A210E48402286E8170003153046DF
:103F7000C6E90434B461F46134627462FDF7EAF9AD
:103F800008B1FCF744FDEE67B56335B0F0BD000045
:103F900000100140F044025800000258640100245F
:103FA000100002402DE9F8430446D0F888009846F6
:103FB00016460D46202802D00220BDE8F883A5B1A0
:103FC0009EB10021C4F890102120C4F88800183454
:103FD000FEF710FB814654F8100CA687E6872027D1
:103FE000183CB0F5805F02D003E00120E5E72069CE
:103FF00010B12E46002510E000260EE0802120465C
:1040000000F010FFC0B9DEB116F8010B216888621C
:10401000B4F85600401EA4F85600B4F856004B46BB
:104020004FF00002CDF800800028E7D14FF04001AA
:10403000204600F0F7FE48B1C4F888700320BCE7C2
:1040400035F8020B2168C0F30800E0E7C4F8887077
:104050000020B2E770B50446D0F88800202801D0CF
:10406000022070BD39B332B3E06F002321652125F2
:10407000A4F85420A4F85620C4F89030C4F888500E
:10408000D8B11549C163E16F14480864E16F144861
:10409000C864E06F036513462068E56F00F12802ED
:1040A000216D2846FDF734FB38B11021C4F890107B
:1040B0002020C4F88800012070BD216840200862DB
:1040C0002068083050E8001F41F0800140E80012ED
:1040D000002AF5D1002070BD79490008B9490008CF
:1040E0002B49000870477047FEE700002DE9F043B8
:1040F0009BB00F468146E84613A0002119910C465B
:104100000D4606680CE000BF09EB850090ED000A43
:1041100008EB0400FCF79EFD241D6D1CE4B2EDB21B
:10412000BD42F1D308EB04004FF0FF33042219A97C
:1041300006600648FFF736FF044822466946FFF747
:1041400089FF1BB0BDE8F0830000807FD000002411
:10415000094808B5016841F00101016000680022CA
:10416000114600F0010000900B20FEF709FBBDE8AE
:1041700008400B20FEF7F6BAD84402581848002130
:1041800070B5164C032381600A25046000F1140405
:10419000C1601D26017404224174817484E86800A2
:1041A0000124C0E90853C0E90A560563C0E90D14AB
:1041B000C0E90F12C0E91121C0E91321C0E915219E
:1041C000C0E91713C0E91912FDF760FF002803D0FA
:1041D000BDE87040FCF71BBC70BD000000A00040B3
:1041E000300000240D4808B5016841F080010160ED
:1041F000016801F080010091016841F00101016056
:10420000016801F001010091016841F008010160BD
:10421000006800F00800009008BD0000E04402586B
:104220001848002110B5164C0C224FF4E1330460FD
:10423000C0E90131C160C0E904128161C16101625C
:1042400041628162FFF70FFE08B1FCF7E0FB0D4809
:104250000021FFF7E1FD08B1FCF7D9FB0948002177
:10426000FFF7B4FD08B1FCF7D2FB0648FFF78EFD5F
:10427000002803D0BDE81040FCF7C9BB10BD00000A
:1042800000100140D0000024FEE7FEE7D0ED030A55
:1042900090ED044AD0ED063AB0EE601A70EEC40A12
:1042A00031EE440AD0ED002A90ED012AD0ED021A39
:1042B00030EE630A90ED073AC0ED050A69B320EECF
:1042C000221AD0ED092A80ED080AB0EE004AB0EEBD
:1042D000600A02EE201A03EEC40AC0ED073A30EE7F
:1042E000030A01EE801A32EE810A80ED090A00BF4E
:1042F00090ED0A1AB4EEC10AF1EE10FA06DC90ED68
:104300000B1AB4EEC10AF1EE10FA01D280ED091ACF
:1043100090ED090AC0ED060A704733EE201AD0ED81
:104320000C3A80ED071AB4EEE31AF1EE10FA02DD52
:10433000C0ED073A08E090ED0D3AB4EEC31AF1EE85
:1043400010FA01D280ED073A22EEA01AD0ED072A2A
:1043500080ED080A02EE221A01EE801A80ED091A99
:10436000B0EE410AC4E7000080EC030A00F1280225
:10437000B1EE042AF9EE042AB7EE003AFFEE003A55
:1043800082EC042A0121DFED091A80F83810C0ED13
:10439000031AC0ED041AC0ED051AC0ED061AC0EDEF
:1043A000071AC0ED081AC0ED091A70470000000096
:1043B00080ED040A704780ED0C0AC0ED0D0A7047CD
:1043C00080ED0A0AC0ED0B0A704780ED030A7047C2
:1043D000704700002DE9F047454D044689464FF0EF
:1043E000000A2868C04380070AD0414E283E306842
:1043F00020F080603060FEF7FDF80746B04608E028
:104400000120BDE8F08700BFFEF7F4F8C01B0228CA
:1044100067D8D8F800000001F6D4206829684FF466
:10442000FE0721F47C313E0241EA00302860207A08
:10443000A389B4F804C040022D4D2D495B1E227C97
:10444000ACF1010C1035091DA0F5007080B2521EB0
:10445000CCF3080C07EA034340EA0C00184306EAD1
:104460000262104328600868626920F0C0001043AF
:1044700008600A68A06922F0200202430A60281D31
:104480000A6822F010020A6002684FF6F873E469C5
:104490009A4342EAC40202600868B9F1000F40F092
:1044A00010020A6011D00868B9F1010F11D040F470
:1044B00000100860D8F80000444640F08060C8F85A
:1044C0000000FEF797F805460DE0086840F400206C
:1044D000EFE740F48010ECE7FEF78CF8401B022871
:1044E00001D903208DE720680001F5D5504688E703
:1044F000284402582DE9F047454D044689464FF0BF
:10450000000A2868C04380070AD0414E283E306820
:1045100020F080503060FEF76DF80746B04608E0A6
:104520000120BDE8F08700BFFEF764F8C01B022839
:1045300067D8D8F800008000F6D4208829684FF4A6
:10454000FE0721F07C713E0241EA00502860207A8B
:10455000A389B4F804C040022D4D2D495B1E227C76
:10456000ACF1010C1835091DA0F5007080B2521E87
:10457000CCF3080C07EA034340EA0C00184306EAB0
:104580000262104328600868626920F440601043AA
:1045900008600A68A06922F4007202430A60281DBC
:1045A0000A6822F480720A6002684FF6F873E469C0
:1045B0009A4342EAC40202600868B9F1000F40F46D
:1045C00080720A6011D00868B9F1010F11D040F073
:1045D00080700860D8F80000444640F08050C8F869
:1045E0000000FEF707F805460DE0086840F480007B
:1045F000EFE740F40000ECE7FDF7FCFF401B02286A
:1046000001D903208DE720688000F5D5504688E762
:10461000284402587047FDF7F3BF000070B59CB006
:104620004C216846FBF76BFF202113A8FBF767FFBF
:104630000220FEF7D7F81E48016821F440410160CE
:104640000168002401F440411B9101688904FCD5F4
:1046500002200A9028230990C20301210D9104250C
:10466000CDE90012CDE90B030C261294CDE90E50D2
:10467000CDE910646846FFF7E3F808B172B6FEE7CB
:1046800040201A9008230501CDE9163013ABCDE97F
:1046900018053F21032283E8160013A81146FEF7F0
:1046A000BFFE002801D072B6FEE71CB070BD00004E
:1046B000184802582748F0B5274A016841F47001AC
:1046C0000160106800F00F00072804D2106820F085
:1046D0000F00C01D106021490020204C10340B68D1
:1046E0001F4D43F001030B6020600B682B400B60F3
:1046F000136803F00F03072B04D9136823F00F038B
:10470000DB1D1360154C174A1834174B261D371D37
:104710002060124C154D28343060261D3860371D3E
:1047200023603B1D35601C1D3A60251D2E1D186041
:10473000331D22602860326018600A6843F2D20498
:10474000064B0B4D22F4802260330A6018602C6007
:10475000F0BD000088ED00E0002000520044025847
:104760007FEDF6EA80020101000202020000FF0173
:104770000040005230B5416EB9B101680D4B03F1F4
:1047800008048A688968C2F34262490F5D5C615C13
:104790002D01B5FBF1F1A0F86A10995CA25C09014A
:1047A000B1FBF2F1A0F8681030BD0121A0F86A1049
:1047B000F8E700002054000890F82810090706D5F3
:1047C0000168836B4A6822F400421A434A6090F8F9
:1047D0002810C90706D00168C36A4A6822F400326B
:1047E0001A434A6090F82810890706D50168036BC0
:1047F0004A6822F480321A434A6090F82810490728
:1048000006D50168436B4A6822F480221A434A6045
:1048100090F82810C90606D50168C36B8A6822F48F
:1048200080521A438A6090F82810890606D50168DC
:10483000036C8A6822F400521A438A6090F82810A8
:10484000490611D50168436C4A6822F480121A4364
:104850004A60416CB1F5801F06D10168836C4A68DB
:1048600022F4C0021A434A6090F82810090606D5BF
:104870000168C26C486820F400201043486070470B
:104880002DE9F84300250446C0F89050FDF7B2FE2C
:104890008046206820266FF07E470068000713D509
:1048A0000022434631042046009700F0BBFA58B17D
:1048B000216851E8000F20F0800041E80002002A42
:1048C000F6D1C4F8886021E020680068400722D54E
:1048D000002243464FF480012046009700F0A2FAE0
:1048E000C8B1206850E8001F21F4907140E8001220
:1048F000002AF6D12068083050E8001F21F001019D
:1049000040E80012002AF5D1C4F88C60032084F836
:104910008450BDE8F883C4F88860C4F88C60E5660C
:104920002567002084F88450F3E770B5846B002578
:104930002168D4F88800D4F88C608968090606D507
:10494000212804D1A4F85650204600F065F82068CC
:104950008068400606D5222E04D1A4F85E50204679
:1049600000F030F8D4F8900040F01000C4F8900047
:104970002046FFF777FA70BD10B5C169806BB1F5BD
:10498000807F16D00021A0F856100168083151E848
:10499000002F22F0800241E80023002BF5D10268AD
:1049A00052E8001F41F0400142E80013002BF6D10D
:1049B00010BDFFF797FB10BD10B5806BFFF793FBA1
:1049C00010BD000010B5026852E8001F21F490717C
:1049D00042E80013002BF6D10E4B0268083252E871
:1049E000001F194042E80014002CF6D1C16E0129C5
:1049F00008D1026852E8001F21F0100142E80013BC
:104A0000002BF6D100212022C0F88C20C16641671E
:104A100010BD0000FEFFFFEF026852E8001F21F00A
:104A2000C00142E80013002BF6D10168083151E8BB
:104A3000002F22F4000241E80023002BF5D12021B1
:104A4000C0F88810704700002DE9F04304468068E4
:104A5000E24E87B0E24B2168D4E90427D4F81CC0A9
:104A600010430A68002547EA0C07384332400243E6
:104A70000A602068E268416821F4405111434160B6
:104A80002268A1699A4201D0206A01439668DFF842
:104A900054C3D54FD54806EA0C060E4396602168EC
:104AA000666ACA6A22F00F023243CA622268BA42B8
:104AB0000ED1006800F0380018286FD07ADCB8B347
:104AC00008286CD010286BD18BE0282868D18EE0A4
:104AD000C7498A4209D1006800F0070006285FD262
:104AE000DFE800F0507D7F818385C2498A4209D189
:104AF000006800F0070006287BD2DFE800F0437072
:104B000072747678BC498A4209D1006800F00700C7
:104B100006286ED2DFE800F036636567696BB74937
:104B20008A420BD1006800F00700062861D200E03D
:104B300043E0DFE800F0275456585A5CB0498A42F7
:104B400006D1006800F0380018284CD0B7DD31E0FD
:104B5000AC498A4209D1006800F00700062848D213
:104B6000DFE800F0103D3F414345A7498A420BD1A1
:104B7000006800F0070006283BD2DFE800F00330B1
:104B800032343638002035E0A0498A4209D1006825
:104B900000F03800182826D091DD0BE023E01EE05D
:104BA00027E09B498A420AD1006800F038001828A3
:104BB00019D084DD202888D11CE001201AE09A4217
:104BC00017D18A48001D006800F00700062810D29F
:104BD000DFE800F0030507090B0D02200AE00420BE
:104BE00008E0082006E0102004E0202002E0402039
:104BF00000E080208749DFF820829A42874A4FF4FC
:104C000000434FEA21174FF000064ED110281AD06A
:104C100006DC022809D004280BD008287ED10DE03C
:104C200020283ED0402879D13DE0FDF705FE014621
:104C300010E06846FDF712FE01990BE003A8FDF7AE
:104C4000AFFE049906E01068800605D51068C0F331
:104C5000C100C140002970D0606A676838F8102030
:104C600007EB4703B1FBF2F0834257D8B0EB073FA5
:104C700054D8002308461946FBF798FB02467808EB
:104C8000130E120243EA012110183A467141002323
:104C9000FBF78CFB624AA0F5407191423ED8216837
:104CA0008FE03946D8E71946D6E7D4F81CC04FF64E
:104CB000EF799C4546D1082819D005DC58B1012868
:104CC0000CD0042875D10DE0102815D0202835D03F
:104CD00040286ED134E0FEF7F3FC01E0FEF702FD60
:104CE000014610E06846FDF7B9FD01990BE003A805
:104CF000FDF756FE049906E01068800604D510689A
:104D0000C0F3C100C140C1B1636A606838F81330B4
:104D1000B1FBF3F1490001EB500100E049E0B1FBC8
:104D2000F0F0A0F11001494543D84FF6F073216827
:104D3000C0F342021840104343E043E03946E3E742
:104D40001946E1E7082819D005DC58B101280CD034
:104D500004282ED10DE0102815D020282BD0402873
:104D600027D12AE0FEF7ACFC01E0FEF7BBFC0146D0
:104D700010E06846FDF772FD01990BE003A8FDF70E
:104D80000FFE049906E01068800604D51068C0F391
:104D9000C100C140B1B1636A606838F81330B1FB3B
:104DA000F3F101EB5001B1FBF0F0A0F11001494526
:104DB00005D9012506E03946EDE71946EBE72168FC
:104DC00080B2C8600120A4F86A00A4F868002846F0
:104DD0006667A66707B0BDE8F0830000F369FFCF00
:104DE000000C0058FFF4FF11001001405444025819
:104DF0000044004000480040004C0040005000408B
:104E00000014014000780040007C00400018014080
:104E1000001C01400090D0030854000800440258D0
:104E2000FFFC0F002DE9F047994617460D46044652
:104E3000089E4FF0000833E0701C31D0FDF7DAFB1C
:104E4000A0EB0900B04218D8BEB12068016849073C
:104E500026D5802D24D0402D22D0C169C943090711
:104E60000DD4082505622046FFF7ACFDC4F890502C
:104E7000012084F88480BDE8F0870320FBE7C06947
:104E8000C04300050CD421684FF40060086220463E
:104E9000FFF798FD2021C4F8901084F88480ECE797
:104EA0002068C06935EA000004D00020B842C3D0B1
:104EB0000020E0E70120F9E7FEE7090700284FEAB4
:104EC000116104DB00F1E02080F80014704700F06D
:104ED0000F0000F1E02080F8141D704710B500F0BD
:104EE0000FF80548FDF755FABDE8104003490022C8
:104EF0000148FCF76DBD000030000024020A801B51
:104F000010B58AB002AA002002210190012482E893
:104F10001300059001A906900848FCF7FEFD022247
:104F20000648012311460094FCF736FE012203488F
:104F30001146FCF7C5FD0AB010BD0000300000248A
:104F400002460B4610B5087800F00F005060087854
:104F500000099060B1F8010040BAD060C9781C79AE
:104F6000090141EA1411116119795C7901F00F010D
:104F700044EA01215161D2ED2C0A1021B1EE600A00
:104F800000F0F6F982ED080AD2ED2D0A10690C2125
:104F9000B1EE600A00F0ECF982ED090AD2ED2E0ABA
:104FA00050690C21B1EE600A00F0E2F982ED0A0AC4
:104FB000987900EE100AB8EE400A82ED0D0AD87911
:104FC00000EE100AB8EE400A82ED0E0A10BD000095
:104FD00014484FF4887110B5FBF791FA114801217C
:104FE00011230022F7EE000A0180438080F8581058
:104FF0009FED0D0A80F83C20C0ED110A80ED100AEB
:1050000080ED120A80ED130A80ED140AC0ED150A36
:10501000B030B2EE091AF3EE0E1AB2EE042A80ECAA
:10502000031A10BDDC010024000000001CB5FF22A3
:10503000FC238DF804208DF800208DF805208DF8D4
:1050400001208DF806208DF802208DF803206A4695
:105050008DF80730082300F001F81CBD10B58AB0A8
:105060000024082B0294CDE9001401D803931CE01E
:105070000C2B0CD0102B0CD0142B0CD0182B0CD0CC
:10508000202B0CD0302B0CD0402B0CD00DE0092164
:105090000AE00A2108E00B2106E00C2104E00D21C2
:1050A00002E00E2100E00F2103914FF480110894DB
:1050B0004B00CDE90441CDE906346946FCF7CCFC50
:1050C000002800D001200AB010BD012170EE601A46
:1050D0008140491E31EE600A00EE901AF8EEE00AB7
:1050E00061EEA00A80EE801ABDEEC10A10EE100A31
:1050F000704700002DED068BA2B000241E941F9473
:1051000020942194FDF700FB01208DF884001F21DD
:105110008DF8801087228DF881208DF885008DF81C
:1051200078001EA88DF882408DF886408DF8794071
:105130001F948DF883408DF88740FDF7B7FA04205F
:10514000FDF7F0FAFDF764FAFFF768FAFFF74AF89F
:10515000FEF7FEFFFFF712F8FFF762F8FFF7BEFE5B
:10516000FFF736FF9FED4B8A6846B0EE481AF0EE27
:10517000480AB0EE480AFFF7F7F8B0EE481AF0EE2A
:10518000480AB0EE480A0FA8FFF7EEF8424801219E
:10519000FFF74CFFF9EE040AB1EE040A6846FFF788
:1051A0000FF9F9EE040AB1EE040A0FA8FFF708F9A7
:1051B000F9EE040AB1EE040A6846FFF7FCF8F9EECE
:1051C000040AB1EE040A0FA8FFF7F5F8334C344E89
:1051D000344D271FB0EE48AA94ED000A68468DEDC5
:1051E000000A94ED010A8DED010A94ED020A8DED9D
:1051F000020A97ED008A86ED108AB0EE480AFFF7A2
:10520000E4F8D6ED089A6846B0EE690AFFF7D0F8E0
:1052100000216846FFF73AF8F0EE408A94ED030A61
:105220000FA88DED0F0A94ED040A8DED100A94ED90
:10523000050A8DED110AB0EE680AFFF7C6F896ED83
:10524000099A0FA8B0EE490AFFF7B2F800210FA89B
:10525000FFF71CF8B0EE402AB0EE4A0A10490122CE
:105260000D48F0EE401AB0EE401AF0EE400A00F0A1
:105270001BF80520FCF79AFB85ED008AC5ED019A25
:10528000C5ED028A0748042185ED039AFEF72EFF3B
:10529000A2E7000000000000300000240400002409
:1052A000DC010024EC0200242DE9FC41B0EE413A7F
:1052B00091ED2C1AF0EE603AF0EE612AF1EE410A1F
:1052C0000B46064610201546FFF7FFFE93ED2D1AFC
:1052D000B0EE630A07460C20F1EE410AFFF7F5FE37
:1052E00093ED2E1AB0EE420A02460C20F1EE410A6E
:1052F000FFF7EBFE9FED1D2A9FED1B1AB0EE430A50
:10530000F0EE420A04460C20FFF7DFFEB1EE041A6D
:10531000F0EE420AB0EE620A03460C20FFF7D5FE1B
:105320004FEA172C8DF800C011098DF801708DF827
:10533000043012014FEA001C8DF802104FEA101ED3
:105340008DF805E042EA132229464CEA142C8DF828
:1053500006C0082330468DF803206A468DF80740C2
:10536000FFF77CFEBDE8FC810000FA43000000006E
:1053700001EE100A70EEC00A0120B8EEC11A884092
:10538000401E21EE201A00EE900AF8EEE01AC1EE5F
:10539000210A30EE800A70474FF04070E1EE100AAB
:1053A00070470006101600061016000000010203E8
:1053B00004050607080C10141820304000000000F7
:1053C00000000000000000000000000000000000DD
:1053D00001000000020000000300000004000000C3
:1053E00000000000050000000000000000000000B8
:1053F00000000000060000000000000000000000A7
:105400000000000007000000010002000400060088
:1054100008000A000C00100020004000800000017D
:105420000101010307010000080402040801010151
:10543000000000000102030401020304060708093A
:105440006054000800000024300000000803000839
:10545000905400083000002448090000240300088C
:10546000000000000000803F6F12833A000000003F
:10547000CDCCCC3D8FC2F53C000000000100000007
:1054800010000000000000000090D0030090D00346
:04000005080002CD20
:00000001FF
